{
  "contractName": "BEP20TokenFactory",
  "abi": [
    {
      "inputs": [
        {
          "internalType": "address",
          "name": "_logicImplement",
          "type": "address"
        }
      ],
      "stateMutability": "nonpayable",
      "type": "constructor"
    },
    {
      "anonymous": false,
      "inputs": [
        {
          "indexed": true,
          "internalType": "address",
          "name": "previousOwner",
          "type": "address"
        },
        {
          "indexed": true,
          "internalType": "address",
          "name": "newOwner",
          "type": "address"
        }
      ],
      "name": "OwnershipTransferred",
      "type": "event"
    },
    {
      "anonymous": false,
      "inputs": [
        {
          "indexed": true,
          "internalType": "address",
          "name": "token",
          "type": "address"
        }
      ],
      "name": "TokenCreated",
      "type": "event"
    },
    {
      "inputs": [],
      "name": "logicImplement",
      "outputs": [
        {
          "internalType": "address",
          "name": "",
          "type": "address"
        }
      ],
      "stateMutability": "view",
      "type": "function",
      "constant": true
    },
    {
      "inputs": [],
      "name": "owner",
      "outputs": [
        {
          "internalType": "address",
          "name": "",
          "type": "address"
        }
      ],
      "stateMutability": "view",
      "type": "function",
      "constant": true
    },
    {
      "inputs": [],
      "name": "renounceOwnership",
      "outputs": [],
      "stateMutability": "nonpayable",
      "type": "function"
    },
    {
      "inputs": [
        {
          "internalType": "address",
          "name": "newOwner",
          "type": "address"
        }
      ],
      "name": "transferOwnership",
      "outputs": [],
      "stateMutability": "nonpayable",
      "type": "function"
    },
    {
      "inputs": [
        {
          "internalType": "string",
          "name": "name",
          "type": "string"
        },
        {
          "internalType": "string",
          "name": "symbol",
          "type": "string"
        },
        {
          "internalType": "uint8",
          "name": "decimals",
          "type": "uint8"
        },
        {
          "internalType": "uint256",
          "name": "amount",
          "type": "uint256"
        },
        {
          "internalType": "bool",
          "name": "mintable",
          "type": "bool"
        },
        {
          "internalType": "address",
          "name": "bep20Owner",
          "type": "address"
        },
        {
          "internalType": "address",
          "name": "proxyAdmin",
          "type": "address"
        }
      ],
      "name": "createBEP20Token",
      "outputs": [
        {
          "internalType": "address",
          "name": "",
          "type": "address"
        }
      ],
      "stateMutability": "nonpayable",
      "type": "function"
    }
  ],
  "bytecode": "0x608060405234801561001057600080fd5b5060405161276d38038061276d83398181016040528101906100329190610144565b600061004261012760201b60201c565b9050806000806101000a81548173ffffffffffffffffffffffffffffffffffffffff021916908373ffffffffffffffffffffffffffffffffffffffff1602179055508073ffffffffffffffffffffffffffffffffffffffff16600073ffffffffffffffffffffffffffffffffffffffff167f8be0079c531659141344cd1fd0a4f28419497f9722a3daafe3b4186f6b6457e060405160405180910390a35080600160006101000a81548173ffffffffffffffffffffffffffffffffffffffff021916908373ffffffffffffffffffffffffffffffffffffffff160217905550506101b6565b600033905090565b60008151905061013e8161019f565b92915050565b60006020828403121561015657600080fd5b60006101648482850161012f565b91505092915050565b60006101788261017f565b9050919050565b600073ffffffffffffffffffffffffffffffffffffffff82169050919050565b6101a88161016d565b81146101b357600080fd5b50565b6125a8806101c56000396000f3fe60806040523480156200001157600080fd5b50600436106200005e5760003560e01c806357a2fe931462000063578063715018a614620000855780638da5cb5b1462000091578063f2fde38b14620000b3578063f3b74ac514620000d3575b600080fd5b6200006d62000109565b6040516200007c9190620008c7565b60405180910390f35b6200008f6200012f565b005b6200009b62000270565b604051620000aa9190620008c7565b60405180910390f35b620000d16004803603810190620000cb9190620006c8565b62000299565b005b620000f16004803603810190620000eb9190620006f4565b6200044c565b604051620001009190620008c7565b60405180910390f35b600160009054906101000a900473ffffffffffffffffffffffffffffffffffffffff1681565b6200013962000609565b73ffffffffffffffffffffffffffffffffffffffff166200015962000270565b73ffffffffffffffffffffffffffffffffffffffff1614620001b2576040517f08c379a0000000000000000000000000000000000000000000000000000000008152600401620001a990620009c7565b60405180910390fd5b600073ffffffffffffffffffffffffffffffffffffffff1660008054906101000a900473ffffffffffffffffffffffffffffffffffffffff1673ffffffffffffffffffffffffffffffffffffffff167f8be0079c531659141344cd1fd0a4f28419497f9722a3daafe3b4186f6b6457e060405160405180910390a360008060006101000a81548173ffffffffffffffffffffffffffffffffffffffff021916908373ffffffffffffffffffffffffffffffffffffffff160217905550565b60008060009054906101000a900473ffffffffffffffffffffffffffffffffffffffff16905090565b620002a362000609565b73ffffffffffffffffffffffffffffffffffffffff16620002c362000270565b73ffffffffffffffffffffffffffffffffffffffff16146200031c576040517f08c379a00000000000000000000000000000000000000000000000000000000081526004016200031390620009c7565b60405180910390fd5b600073ffffffffffffffffffffffffffffffffffffffff168173ffffffffffffffffffffffffffffffffffffffff1614156200038f576040517f08c379a00000000000000000000000000000000000000000000000000000000081526004016200038690620009a5565b60405180910390fd5b8073ffffffffffffffffffffffffffffffffffffffff1660008054906101000a900473ffffffffffffffffffffffffffffffffffffffff1673ffffffffffffffffffffffffffffffffffffffff167f8be0079c531659141344cd1fd0a4f28419497f9722a3daafe3b4186f6b6457e060405160405180910390a3806000806101000a81548173ffffffffffffffffffffffffffffffffffffffff021916908373ffffffffffffffffffffffffffffffffffffffff16021790555050565b60006200045862000609565b73ffffffffffffffffffffffffffffffffffffffff166200047862000270565b73ffffffffffffffffffffffffffffffffffffffff1614620004d1576040517f08c379a0000000000000000000000000000000000000000000000000000000008152600401620004c890620009c7565b60405180910390fd5b6000600160009054906101000a900473ffffffffffffffffffffffffffffffffffffffff1683604051620005059062000611565b62000512929190620008e4565b604051809103906000f0801580156200052f573d6000803e3d6000fd5b50905060008190508073ffffffffffffffffffffffffffffffffffffffff1663ef3ebcb88d8d8d8d8d8d8d8d6040518963ffffffff1660e01b81526004016200058098979695949392919062000926565b600060405180830381600087803b1580156200059b57600080fd5b505af1158015620005b0573d6000803e3d6000fd5b505050508073ffffffffffffffffffffffffffffffffffffffff167f2e2b3f61b70d2d131b2a807371103cc98d51adcaa5e9a8f9c32658ad8426e74e60405160405180910390a280925050509998505050505050505050565b600033905090565b611a0d8062000b6683390190565b600081359050620006308162000afd565b92915050565b600081359050620006478162000b17565b92915050565b60008083601f8401126200066057600080fd5b8235905067ffffffffffffffff8111156200067a57600080fd5b6020830191508360018202830111156200069357600080fd5b9250929050565b600081359050620006ab8162000b31565b92915050565b600081359050620006c28162000b4b565b92915050565b600060208284031215620006db57600080fd5b6000620006eb848285016200061f565b91505092915050565b600080600080600080600080600060e08a8c0312156200071357600080fd5b60008a013567ffffffffffffffff8111156200072e57600080fd5b6200073c8c828d016200064d565b995099505060208a013567ffffffffffffffff8111156200075c57600080fd5b6200076a8c828d016200064d565b975097505060406200077f8c828d01620006b1565b9550506060620007928c828d016200069a565b9450506080620007a58c828d0162000636565b93505060a0620007b88c828d016200061f565b92505060c0620007cb8c828d016200061f565b9150509295985092959850929598565b620007e68162000a0b565b82525050565b620007f78162000a1f565b82525050565b60006200080b8385620009fa565b93506200081a83858462000a62565b620008258362000a71565b840190509392505050565b60006200083f602683620009fa565b91506200084c8262000a82565b604082019050919050565b600062000866602083620009fa565b9150620008738262000ad1565b602082019050919050565b60006200088d600083620009e9565b91506200089a8262000afa565b600082019050919050565b620008b08162000a4b565b82525050565b620008c18162000a55565b82525050565b6000602082019050620008de6000830184620007db565b92915050565b6000606082019050620008fb6000830185620007db565b6200090a6020830184620007db565b81810360408301526200091d816200087e565b90509392505050565b600060c082019050818103600083015262000943818a8c620007fd565b905081810360208301526200095a81888a620007fd565b90506200096b6040830187620008b6565b6200097a6060830186620008a5565b620009896080830185620007ec565b6200099860a0830184620007db565b9998505050505050505050565b60006020820190508181036000830152620009c08162000830565b9050919050565b60006020820190508181036000830152620009e28162000857565b9050919050565b600082825260208201905092915050565b600082825260208201905092915050565b600062000a188262000a2b565b9050919050565b60008115159050919050565b600073ffffffffffffffffffffffffffffffffffffffff82169050919050565b6000819050919050565b600060ff82169050919050565b82818337600083830152505050565b6000601f19601f8301169050919050565b7f4f776e61626c653a206e6577206f776e657220697320746865207a65726f206160008201527f6464726573730000000000000000000000000000000000000000000000000000602082015250565b7f4f776e61626c653a2063616c6c6572206973206e6f7420746865206f776e6572600082015250565b50565b62000b088162000a0b565b811462000b1457600080fd5b50565b62000b228162000a1f565b811462000b2e57600080fd5b50565b62000b3c8162000a4b565b811462000b4857600080fd5b50565b62000b568162000a55565b811462000b6257600080fd5b5056fe60806040523480156200001157600080fd5b5060405162001a0d38038062001a0d8339818101604052810190620000379190620006c6565b828282828160017f360894a13ba1a3210667c828492db98dca3e2076cc3735a920a3ca505d382bbd60001c6200006e919062000994565b60001b7f360894a13ba1a3210667c828492db98dca3e2076cc3735a920a3ca505d382bbc60001b14620000ca577f4e487b7100000000000000000000000000000000000000000000000000000000600052600160045260246000fd5b620000de828260006200018b60201b60201c565b505060017fb53127684a568b3173ae13b9f8a6016e243e63b6e8ee1178d6a717850b5d610460001c62000112919062000994565b60001b7fb53127684a568b3173ae13b9f8a6016e243e63b6e8ee1178d6a717850b5d610360001b146200016e577f4e487b7100000000000000000000000000000000000000000000000000000000600052600160045260246000fd5b6200017f826200021160201b60201c565b50505050505062000bef565b6200019c836200026f60201b60201c565b8273ffffffffffffffffffffffffffffffffffffffff167fbc7cd75a20ee27fd9adebab32041f755214dbc6bffa90cc0225b39da2e5c2d3b60405160405180910390a2600082511180620001ed5750805b156200020c576200020a83836200034560201b6200034f1760201c565b505b505050565b7f7e644d79422f17c01e4894b5f4f588d331ebfa28653d42ae832dc59e38c9798f620002426200037b60201b60201c565b82604051620002539291906200084c565b60405180910390a16200026c81620003df60201b60201c565b50565b6200028581620004d060201b6200037c1760201c565b620002c7576040517f08c379a0000000000000000000000000000000000000000000000000000000008152600401620002be90620008bf565b60405180910390fd5b80620003017f360894a13ba1a3210667c828492db98dca3e2076cc3735a920a3ca505d382bbc60001b620004e360201b6200038f1760201c565b60000160006101000a81548173ffffffffffffffffffffffffffffffffffffffff021916908373ffffffffffffffffffffffffffffffffffffffff16021790555050565b6060620003738383604051806060016040528060278152602001620019e660279139620004ed60201b60201c565b905092915050565b6000620003b67fb53127684a568b3173ae13b9f8a6016e243e63b6e8ee1178d6a717850b5d610360001b620004e360201b6200038f1760201c565b60000160009054906101000a900473ffffffffffffffffffffffffffffffffffffffff16905090565b600073ffffffffffffffffffffffffffffffffffffffff168173ffffffffffffffffffffffffffffffffffffffff16141562000452576040517f08c379a000000000000000000000000000000000000000000000000000000000815260040162000449906200089d565b60405180910390fd5b806200048c7fb53127684a568b3173ae13b9f8a6016e243e63b6e8ee1178d6a717850b5d610360001b620004e360201b6200038f1760201c565b60000160006101000a81548173ffffffffffffffffffffffffffffffffffffffff021916908373ffffffffffffffffffffffffffffffffffffffff16021790555050565b600080823b905060008111915050919050565b6000819050919050565b60606200050084620004d060201b60201c565b62000542576040517f08c379a00000000000000000000000000000000000000000000000000000000081526004016200053990620008e1565b60405180910390fd5b6000808573ffffffffffffffffffffffffffffffffffffffff16856040516200056c919062000833565b600060405180830381855af49150503d8060008114620005a9576040519150601f19603f3d011682016040523d82523d6000602084013e620005ae565b606091505b5091509150620005c6828286620005d160201b60201c565b925050509392505050565b60608315620005e35782905062000636565b600083511115620005f75782518084602001fd5b816040517f08c379a00000000000000000000000000000000000000000000000000000000081526004016200062d919062000879565b60405180910390fd5b9392505050565b6000620006546200064e846200092c565b62000903565b9050828152602081018484840111156200066d57600080fd5b6200067a84828562000a0d565b509392505050565b600081519050620006938162000bd5565b92915050565b600082601f830112620006ab57600080fd5b8151620006bd8482602086016200063d565b91505092915050565b600080600060608486031215620006dc57600080fd5b6000620006ec8682870162000682565b9350506020620006ff8682870162000682565b925050604084015167ffffffffffffffff8111156200071d57600080fd5b6200072b8682870162000699565b9150509250925092565b6200074081620009cf565b82525050565b6000620007538262000962565b6200075f818562000978565b93506200077181856020860162000a0d565b80840191505092915050565b60006200078a826200096d565b62000796818562000983565b9350620007a881856020860162000a0d565b620007b38162000ad7565b840191505092915050565b6000620007cd60268362000983565b9150620007da8262000ae8565b604082019050919050565b6000620007f4602d8362000983565b9150620008018262000b37565b604082019050919050565b60006200081b60268362000983565b9150620008288262000b86565b604082019050919050565b600062000841828462000746565b915081905092915050565b600060408201905062000863600083018562000735565b62000872602083018462000735565b9392505050565b600060208201905081810360008301526200089581846200077d565b905092915050565b60006020820190508181036000830152620008b881620007be565b9050919050565b60006020820190508181036000830152620008da81620007e5565b9050919050565b60006020820190508181036000830152620008fc816200080c565b9050919050565b60006200090f62000922565b90506200091d828262000a43565b919050565b6000604051905090565b600067ffffffffffffffff8211156200094a576200094962000aa8565b5b620009558262000ad7565b9050602081019050919050565b600081519050919050565b600081519050919050565b600081905092915050565b600082825260208201905092915050565b6000620009a18262000a03565b9150620009ae8362000a03565b925082821015620009c457620009c362000a79565b5b828203905092915050565b6000620009dc82620009e3565b9050919050565b600073ffffffffffffffffffffffffffffffffffffffff82169050919050565b6000819050919050565b60005b8381101562000a2d57808201518184015260208101905062000a10565b8381111562000a3d576000848401525b50505050565b62000a4e8262000ad7565b810181811067ffffffffffffffff8211171562000a705762000a6f62000aa8565b5b80604052505050565b7f4e487b7100000000000000000000000000000000000000000000000000000000600052601160045260246000fd5b7f4e487b7100000000000000000000000000000000000000000000000000000000600052604160045260246000fd5b6000601f19601f8301169050919050565b7f455243313936373a206e65772061646d696e20697320746865207a65726f206160008201527f6464726573730000000000000000000000000000000000000000000000000000602082015250565b7f455243313936373a206e657720696d706c656d656e746174696f6e206973206e60008201527f6f74206120636f6e747261637400000000000000000000000000000000000000602082015250565b7f416464726573733a2064656c65676174652063616c6c20746f206e6f6e2d636f60008201527f6e74726163740000000000000000000000000000000000000000000000000000602082015250565b62000be081620009cf565b811462000bec57600080fd5b50565b610de78062000bff6000396000f3fe60806040526004361061004e5760003560e01c80633659cfe6146100675780634f1ef286146100905780635c60da1b146100ac5780638f283970146100d7578063f851a440146101005761005d565b3661005d5761005b61012b565b005b61006561012b565b005b34801561007357600080fd5b5061008e600480360381019061008991906108e6565b610145565b005b6100aa60048036038101906100a5919061090f565b6101ac565b005b3480156100b857600080fd5b506100c161024a565b6040516100ce9190610a83565b60405180910390f35b3480156100e357600080fd5b506100fe60048036038101906100f991906108e6565b6102a2565b005b34801561010c57600080fd5b506101156102f7565b6040516101229190610a83565b60405180910390f35b610133610399565b61014361013e610419565b610428565b565b61014d61044e565b73ffffffffffffffffffffffffffffffffffffffff163373ffffffffffffffffffffffffffffffffffffffff1614156101a05761019b816040518060200160405280600081525060006104a5565b6101a9565b6101a861012b565b5b50565b6101b461044e565b73ffffffffffffffffffffffffffffffffffffffff163373ffffffffffffffffffffffffffffffffffffffff16141561023c576102378383838080601f016020809104026020016040519081016040528093929190818152602001838380828437600081840152601f19601f8201169050808301925050505050505060016104a5565b610245565b61024461012b565b5b505050565b600061025461044e565b73ffffffffffffffffffffffffffffffffffffffff163373ffffffffffffffffffffffffffffffffffffffff1614156102965761028f610419565b905061029f565b61029e61012b565b5b90565b6102aa61044e565b73ffffffffffffffffffffffffffffffffffffffff163373ffffffffffffffffffffffffffffffffffffffff1614156102eb576102e681610514565b6102f4565b6102f361012b565b5b50565b600061030161044e565b73ffffffffffffffffffffffffffffffffffffffff163373ffffffffffffffffffffffffffffffffffffffff1614156103435761033c61044e565b905061034c565b61034b61012b565b5b90565b60606103748383604051806060016040528060278152602001610d8b60279139610560565b905092915050565b600080823b905060008111915050919050565b6000819050919050565b6103a161044e565b73ffffffffffffffffffffffffffffffffffffffff163373ffffffffffffffffffffffffffffffffffffffff16141561040f576040517f08c379a000000000000000000000000000000000000000000000000000000000815260040161040690610b49565b60405180910390fd5b61041761062d565b565b600061042361062f565b905090565b3660008037600080366000845af43d6000803e8060008114610449573d6000f35b3d6000fd5b600061047c7fb53127684a568b3173ae13b9f8a6016e243e63b6e8ee1178d6a717850b5d610360001b61038f565b60000160009054906101000a900473ffffffffffffffffffffffffffffffffffffffff16905090565b6104ae83610686565b8273ffffffffffffffffffffffffffffffffffffffff167fbc7cd75a20ee27fd9adebab32041f755214dbc6bffa90cc0225b39da2e5c2d3b60405160405180910390a26000825111806104fe5750805b1561050f5761050d838361034f565b505b505050565b7f7e644d79422f17c01e4894b5f4f588d331ebfa28653d42ae832dc59e38c9798f61053d61044e565b8260405161054c929190610a9e565b60405180910390a161055d8161073f565b50565b606061056b8461037c565b6105aa576040517f08c379a00000000000000000000000000000000000000000000000000000000081526004016105a190610b29565b60405180910390fd5b6000808573ffffffffffffffffffffffffffffffffffffffff16856040516105d29190610a6c565b600060405180830381855af49150503d806000811461060d576040519150601f19603f3d011682016040523d82523d6000602084013e610612565b606091505b5091509150610622828286610820565b925050509392505050565b565b600061065d7f360894a13ba1a3210667c828492db98dca3e2076cc3735a920a3ca505d382bbc60001b61038f565b60000160009054906101000a900473ffffffffffffffffffffffffffffffffffffffff16905090565b61068f8161037c565b6106ce576040517f08c379a00000000000000000000000000000000000000000000000000000000081526004016106c590610b09565b60405180910390fd5b806106fb7f360894a13ba1a3210667c828492db98dca3e2076cc3735a920a3ca505d382bbc60001b61038f565b60000160006101000a81548173ffffffffffffffffffffffffffffffffffffffff021916908373ffffffffffffffffffffffffffffffffffffffff16021790555050565b600073ffffffffffffffffffffffffffffffffffffffff168173ffffffffffffffffffffffffffffffffffffffff1614156107af576040517f08c379a00000000000000000000000000000000000000000000000000000000081526004016107a690610ae9565b60405180910390fd5b806107dc7fb53127684a568b3173ae13b9f8a6016e243e63b6e8ee1178d6a717850b5d610360001b61038f565b60000160006101000a81548173ffffffffffffffffffffffffffffffffffffffff021916908373ffffffffffffffffffffffffffffffffffffffff16021790555050565b6060831561083057829050610880565b6000835111156108435782518084602001fd5b816040517f08c379a00000000000000000000000000000000000000000000000000000000081526004016108779190610ac7565b60405180910390fd5b9392505050565b60008135905061089681610d73565b92915050565b60008083601f8401126108ae57600080fd5b8235905067ffffffffffffffff8111156108c757600080fd5b6020830191508360018202830111156108df57600080fd5b9250929050565b6000602082840312156108f857600080fd5b600061090684828501610887565b91505092915050565b60008060006040848603121561092457600080fd5b600061093286828701610887565b935050602084013567ffffffffffffffff81111561094f57600080fd5b61095b8682870161089c565b92509250509250925092565b61097081610b9b565b82525050565b600061098182610b69565b61098b8185610b7f565b935061099b818560208601610bcd565b80840191505092915050565b60006109b282610b74565b6109bc8185610b8a565b93506109cc818560208601610bcd565b6109d581610c00565b840191505092915050565b60006109ed602683610b8a565b91506109f882610c11565b604082019050919050565b6000610a10602d83610b8a565b9150610a1b82610c60565b604082019050919050565b6000610a33602683610b8a565b9150610a3e82610caf565b604082019050919050565b6000610a56604283610b8a565b9150610a6182610cfe565b606082019050919050565b6000610a788284610976565b915081905092915050565b6000602082019050610a986000830184610967565b92915050565b6000604082019050610ab36000830185610967565b610ac06020830184610967565b9392505050565b60006020820190508181036000830152610ae181846109a7565b905092915050565b60006020820190508181036000830152610b02816109e0565b9050919050565b60006020820190508181036000830152610b2281610a03565b9050919050565b60006020820190508181036000830152610b4281610a26565b9050919050565b60006020820190508181036000830152610b6281610a49565b9050919050565b600081519050919050565b600081519050919050565b600081905092915050565b600082825260208201905092915050565b6000610ba682610bad565b9050919050565b600073ffffffffffffffffffffffffffffffffffffffff82169050919050565b60005b83811015610beb578082015181840152602081019050610bd0565b83811115610bfa576000848401525b50505050565b6000601f19601f8301169050919050565b7f455243313936373a206e65772061646d696e20697320746865207a65726f206160008201527f6464726573730000000000000000000000000000000000000000000000000000602082015250565b7f455243313936373a206e657720696d706c656d656e746174696f6e206973206e60008201527f6f74206120636f6e747261637400000000000000000000000000000000000000602082015250565b7f416464726573733a2064656c65676174652063616c6c20746f206e6f6e2d636f60008201527f6e74726163740000000000000000000000000000000000000000000000000000602082015250565b7f5472616e73706172656e745570677261646561626c6550726f78793a2061646d60008201527f696e2063616e6e6f742066616c6c6261636b20746f2070726f7879207461726760208201527f6574000000000000000000000000000000000000000000000000000000000000604082015250565b610d7c81610b9b565b8114610d8757600080fd5b5056fe416464726573733a206c6f772d6c6576656c2064656c65676174652063616c6c206661696c6564a264697066735822122064c737c4be9ba2dd33584cc7eadc8bc3341107d1ca9bec2dfb5a37dbeeee9a5e64736f6c63430008020033416464726573733a206c6f772d6c6576656c2064656c65676174652063616c6c206661696c6564a264697066735822122021baaaf74dd422be51dfae268fc343a9c810ab13c5e706b0f5f4e108b75fdc4164736f6c63430008020033",
  "immutableReferences": {},
  "source": "//SPDX-License-Identifier: UNLICENSED\npragma solidity ^0.8.2;\n\nimport './BEP20UpgradeableProxy.sol';\nimport './IProxyInitialize.sol';\nimport \"../node_modules/@openzeppelin/contracts/access/Ownable.sol\";\n\ncontract BEP20TokenFactory is Ownable{\n\n    address public logicImplement;\n\n    event TokenCreated(address indexed token);\n\n    constructor(address _logicImplement) public {\n        logicImplement = _logicImplement;\n    }\n\n    function createBEP20Token(string calldata name, string calldata symbol, uint8 decimals, uint256 amount, bool mintable, address bep20Owner, address proxyAdmin) external onlyOwner returns (address) {\n        BEP20UpgradeableProxy proxyToken = new BEP20UpgradeableProxy(logicImplement, proxyAdmin, \"\");\n\n        IProxyInitialize token = IProxyInitialize(address(proxyToken));\n        token.initialize(name, symbol, decimals, amount, mintable, bep20Owner);\n        emit TokenCreated(address(token));\n        return address(token);\n    }\n}",
  "sourcePath": "/Users/nicolascloutier/IdeaProjects/herpes-cake/contracts/BEP20TokenFactory.sol",
  "compiler": {
    "name": "solc",
    "version": "0.8.2+commit.661d1103.Emscripten.clang"
  },
  "schemaVersion": "3.3.4",
  "updatedAt": "2021-06-06T20:49:36.429Z",
  "networkType": "ethereum",
  "devdoc": {
    "kind": "dev",
    "methods": {
      "owner()": {
        "details": "Returns the address of the current owner."
      },
      "renounceOwnership()": {
        "details": "Leaves the contract without owner. It will not be possible to call `onlyOwner` functions anymore. Can only be called by the current owner. NOTE: Renouncing ownership will leave the contract without an owner, thereby removing any functionality that is only available to the owner."
      },
      "transferOwnership(address)": {
        "details": "Transfers ownership of the contract to a new account (`newOwner`). Can only be called by the current owner."
      }
    },
    "version": 1
  },
  "userdoc": {
    "kind": "user",
    "methods": {},
    "version": 1
  }
}