{
  "contractName": "Herpes",
  "abi": [
    {
      "inputs": [
        {
          "internalType": "string",
          "name": "name",
          "type": "string"
        },
        {
          "internalType": "string",
          "name": "symbol",
          "type": "string"
        },
        {
          "internalType": "uint8",
          "name": "decimals",
          "type": "uint8"
        },
        {
          "internalType": "uint256",
          "name": "_totalSupply",
          "type": "uint256"
        },
        {
          "internalType": "bool",
          "name": "mintable",
          "type": "bool"
        },
        {
          "internalType": "address",
          "name": "owner",
          "type": "address"
        }
      ],
      "stateMutability": "nonpayable",
      "type": "constructor"
    },
    {
      "anonymous": false,
      "inputs": [
        {
          "indexed": true,
          "internalType": "address",
          "name": "owner",
          "type": "address"
        },
        {
          "indexed": true,
          "internalType": "address",
          "name": "spender",
          "type": "address"
        },
        {
          "indexed": false,
          "internalType": "uint256",
          "name": "value",
          "type": "uint256"
        }
      ],
      "name": "Approval",
      "type": "event"
    },
    {
      "anonymous": false,
      "inputs": [
        {
          "indexed": false,
          "internalType": "uint256",
          "name": "minTokensBeforeSwap",
          "type": "uint256"
        }
      ],
      "name": "MinTokensBeforeSwapUpdated",
      "type": "event"
    },
    {
      "anonymous": false,
      "inputs": [
        {
          "indexed": true,
          "internalType": "address",
          "name": "previousOwner",
          "type": "address"
        },
        {
          "indexed": true,
          "internalType": "address",
          "name": "newOwner",
          "type": "address"
        }
      ],
      "name": "OwnershipTransferred",
      "type": "event"
    },
    {
      "anonymous": false,
      "inputs": [
        {
          "indexed": false,
          "internalType": "uint256",
          "name": "tokensSwapped",
          "type": "uint256"
        },
        {
          "indexed": false,
          "internalType": "uint256",
          "name": "ethReceived",
          "type": "uint256"
        },
        {
          "indexed": false,
          "internalType": "uint256",
          "name": "tokensIntoLiqudity",
          "type": "uint256"
        }
      ],
      "name": "SwapAndLiquify",
      "type": "event"
    },
    {
      "anonymous": false,
      "inputs": [
        {
          "indexed": false,
          "internalType": "bool",
          "name": "enabled",
          "type": "bool"
        }
      ],
      "name": "SwapAndLiquifyEnabledUpdated",
      "type": "event"
    },
    {
      "anonymous": false,
      "inputs": [
        {
          "indexed": true,
          "internalType": "address",
          "name": "from",
          "type": "address"
        },
        {
          "indexed": true,
          "internalType": "address",
          "name": "to",
          "type": "address"
        },
        {
          "indexed": false,
          "internalType": "uint256",
          "name": "value",
          "type": "uint256"
        }
      ],
      "name": "Transfer",
      "type": "event"
    },
    {
      "inputs": [],
      "name": "_liquidityFee",
      "outputs": [
        {
          "internalType": "uint256",
          "name": "",
          "type": "uint256"
        }
      ],
      "stateMutability": "view",
      "type": "function",
      "constant": true
    },
    {
      "inputs": [],
      "name": "_maxTxAmount",
      "outputs": [
        {
          "internalType": "uint256",
          "name": "",
          "type": "uint256"
        }
      ],
      "stateMutability": "view",
      "type": "function",
      "constant": true
    },
    {
      "inputs": [],
      "name": "_taxFee",
      "outputs": [
        {
          "internalType": "uint256",
          "name": "",
          "type": "uint256"
        }
      ],
      "stateMutability": "view",
      "type": "function",
      "constant": true
    },
    {
      "inputs": [],
      "name": "numTokensSellToAddToLiquidity",
      "outputs": [
        {
          "internalType": "uint256",
          "name": "",
          "type": "uint256"
        }
      ],
      "stateMutability": "view",
      "type": "function",
      "constant": true
    },
    {
      "inputs": [],
      "name": "swapAndLiquifyEnabled",
      "outputs": [
        {
          "internalType": "bool",
          "name": "",
          "type": "bool"
        }
      ],
      "stateMutability": "view",
      "type": "function",
      "constant": true
    },
    {
      "inputs": [],
      "name": "uniswapV2Pair",
      "outputs": [
        {
          "internalType": "address",
          "name": "",
          "type": "address"
        }
      ],
      "stateMutability": "view",
      "type": "function",
      "constant": true
    },
    {
      "inputs": [],
      "name": "uniswapV2Router",
      "outputs": [
        {
          "internalType": "contract IUniswapV2Router02",
          "name": "",
          "type": "address"
        }
      ],
      "stateMutability": "view",
      "type": "function",
      "constant": true
    },
    {
      "stateMutability": "payable",
      "type": "receive",
      "payable": true
    },
    {
      "inputs": [
        {
          "internalType": "contract IUniswapV2Router02",
          "name": "router",
          "type": "address"
        }
      ],
      "name": "setRouter",
      "outputs": [],
      "stateMutability": "nonpayable",
      "type": "function"
    },
    {
      "inputs": [],
      "name": "renounceOwnership",
      "outputs": [],
      "stateMutability": "nonpayable",
      "type": "function"
    },
    {
      "inputs": [
        {
          "internalType": "address",
          "name": "newOwner",
          "type": "address"
        }
      ],
      "name": "transferOwnership",
      "outputs": [],
      "stateMutability": "nonpayable",
      "type": "function"
    },
    {
      "inputs": [],
      "name": "mintable",
      "outputs": [
        {
          "internalType": "bool",
          "name": "",
          "type": "bool"
        }
      ],
      "stateMutability": "view",
      "type": "function",
      "constant": true
    },
    {
      "inputs": [],
      "name": "getOwner",
      "outputs": [
        {
          "internalType": "address",
          "name": "",
          "type": "address"
        }
      ],
      "stateMutability": "view",
      "type": "function",
      "constant": true
    },
    {
      "inputs": [],
      "name": "decimals",
      "outputs": [
        {
          "internalType": "uint8",
          "name": "",
          "type": "uint8"
        }
      ],
      "stateMutability": "view",
      "type": "function",
      "constant": true
    },
    {
      "inputs": [],
      "name": "symbol",
      "outputs": [
        {
          "internalType": "string",
          "name": "",
          "type": "string"
        }
      ],
      "stateMutability": "view",
      "type": "function",
      "constant": true
    },
    {
      "inputs": [],
      "name": "name",
      "outputs": [
        {
          "internalType": "string",
          "name": "",
          "type": "string"
        }
      ],
      "stateMutability": "view",
      "type": "function",
      "constant": true
    },
    {
      "inputs": [],
      "name": "totalSupply",
      "outputs": [
        {
          "internalType": "uint256",
          "name": "",
          "type": "uint256"
        }
      ],
      "stateMutability": "view",
      "type": "function",
      "constant": true
    },
    {
      "inputs": [
        {
          "internalType": "address",
          "name": "account",
          "type": "address"
        }
      ],
      "name": "balanceOf",
      "outputs": [
        {
          "internalType": "uint256",
          "name": "",
          "type": "uint256"
        }
      ],
      "stateMutability": "view",
      "type": "function",
      "constant": true
    },
    {
      "inputs": [
        {
          "internalType": "address",
          "name": "recipient",
          "type": "address"
        },
        {
          "internalType": "uint256",
          "name": "amount",
          "type": "uint256"
        }
      ],
      "name": "transfer",
      "outputs": [
        {
          "internalType": "bool",
          "name": "",
          "type": "bool"
        }
      ],
      "stateMutability": "nonpayable",
      "type": "function"
    },
    {
      "inputs": [
        {
          "internalType": "address",
          "name": "owner",
          "type": "address"
        },
        {
          "internalType": "address",
          "name": "spender",
          "type": "address"
        }
      ],
      "name": "allowance",
      "outputs": [
        {
          "internalType": "uint256",
          "name": "",
          "type": "uint256"
        }
      ],
      "stateMutability": "view",
      "type": "function",
      "constant": true
    },
    {
      "inputs": [
        {
          "internalType": "address",
          "name": "spender",
          "type": "address"
        },
        {
          "internalType": "uint256",
          "name": "amount",
          "type": "uint256"
        }
      ],
      "name": "approve",
      "outputs": [
        {
          "internalType": "bool",
          "name": "",
          "type": "bool"
        }
      ],
      "stateMutability": "nonpayable",
      "type": "function"
    },
    {
      "inputs": [
        {
          "internalType": "address",
          "name": "sender",
          "type": "address"
        },
        {
          "internalType": "address",
          "name": "recipient",
          "type": "address"
        },
        {
          "internalType": "uint256",
          "name": "amount",
          "type": "uint256"
        }
      ],
      "name": "transferFrom",
      "outputs": [
        {
          "internalType": "bool",
          "name": "",
          "type": "bool"
        }
      ],
      "stateMutability": "nonpayable",
      "type": "function"
    },
    {
      "inputs": [
        {
          "internalType": "address",
          "name": "spender",
          "type": "address"
        },
        {
          "internalType": "uint256",
          "name": "addedValue",
          "type": "uint256"
        }
      ],
      "name": "increaseAllowance",
      "outputs": [
        {
          "internalType": "bool",
          "name": "",
          "type": "bool"
        }
      ],
      "stateMutability": "nonpayable",
      "type": "function"
    },
    {
      "inputs": [
        {
          "internalType": "address",
          "name": "spender",
          "type": "address"
        },
        {
          "internalType": "uint256",
          "name": "subtractedValue",
          "type": "uint256"
        }
      ],
      "name": "decreaseAllowance",
      "outputs": [
        {
          "internalType": "bool",
          "name": "",
          "type": "bool"
        }
      ],
      "stateMutability": "nonpayable",
      "type": "function"
    },
    {
      "inputs": [
        {
          "internalType": "uint256",
          "name": "amount",
          "type": "uint256"
        }
      ],
      "name": "mint",
      "outputs": [
        {
          "internalType": "bool",
          "name": "",
          "type": "bool"
        }
      ],
      "stateMutability": "nonpayable",
      "type": "function"
    },
    {
      "inputs": [
        {
          "internalType": "uint256",
          "name": "amount",
          "type": "uint256"
        }
      ],
      "name": "burn",
      "outputs": [
        {
          "internalType": "bool",
          "name": "",
          "type": "bool"
        }
      ],
      "stateMutability": "nonpayable",
      "type": "function"
    },
    {
      "inputs": [
        {
          "internalType": "address",
          "name": "account",
          "type": "address"
        }
      ],
      "name": "isExcludedFromReward",
      "outputs": [
        {
          "internalType": "bool",
          "name": "",
          "type": "bool"
        }
      ],
      "stateMutability": "view",
      "type": "function",
      "constant": true
    },
    {
      "inputs": [],
      "name": "totalFees",
      "outputs": [
        {
          "internalType": "uint256",
          "name": "",
          "type": "uint256"
        }
      ],
      "stateMutability": "view",
      "type": "function",
      "constant": true
    },
    {
      "inputs": [
        {
          "internalType": "uint256",
          "name": "tAmount",
          "type": "uint256"
        }
      ],
      "name": "deliver",
      "outputs": [],
      "stateMutability": "nonpayable",
      "type": "function"
    },
    {
      "inputs": [
        {
          "internalType": "uint256",
          "name": "tAmount",
          "type": "uint256"
        },
        {
          "internalType": "bool",
          "name": "deductTransferFee",
          "type": "bool"
        }
      ],
      "name": "reflectionFromToken",
      "outputs": [
        {
          "internalType": "uint256",
          "name": "",
          "type": "uint256"
        }
      ],
      "stateMutability": "view",
      "type": "function",
      "constant": true
    },
    {
      "inputs": [
        {
          "internalType": "uint256",
          "name": "rAmount",
          "type": "uint256"
        }
      ],
      "name": "tokenFromReflection",
      "outputs": [
        {
          "internalType": "uint256",
          "name": "",
          "type": "uint256"
        }
      ],
      "stateMutability": "view",
      "type": "function",
      "constant": true
    },
    {
      "inputs": [
        {
          "internalType": "address",
          "name": "account",
          "type": "address"
        }
      ],
      "name": "excludeFromReward",
      "outputs": [],
      "stateMutability": "nonpayable",
      "type": "function"
    },
    {
      "inputs": [
        {
          "internalType": "address",
          "name": "account",
          "type": "address"
        }
      ],
      "name": "includeInReward",
      "outputs": [],
      "stateMutability": "nonpayable",
      "type": "function"
    },
    {
      "inputs": [
        {
          "internalType": "address",
          "name": "account",
          "type": "address"
        }
      ],
      "name": "excludeFromFee",
      "outputs": [],
      "stateMutability": "nonpayable",
      "type": "function"
    },
    {
      "inputs": [
        {
          "internalType": "address",
          "name": "account",
          "type": "address"
        }
      ],
      "name": "includeInFee",
      "outputs": [],
      "stateMutability": "nonpayable",
      "type": "function"
    },
    {
      "inputs": [
        {
          "internalType": "uint256",
          "name": "taxFee",
          "type": "uint256"
        }
      ],
      "name": "setTaxFeePercent",
      "outputs": [],
      "stateMutability": "nonpayable",
      "type": "function"
    },
    {
      "inputs": [
        {
          "internalType": "uint256",
          "name": "liquidityFee",
          "type": "uint256"
        }
      ],
      "name": "setLiquidityFeePercent",
      "outputs": [],
      "stateMutability": "nonpayable",
      "type": "function"
    },
    {
      "inputs": [
        {
          "internalType": "uint256",
          "name": "swapNumber",
          "type": "uint256"
        }
      ],
      "name": "setNumTokensSellToAddToLiquidity",
      "outputs": [],
      "stateMutability": "nonpayable",
      "type": "function"
    },
    {
      "inputs": [
        {
          "internalType": "uint256",
          "name": "maxTxPercent",
          "type": "uint256"
        }
      ],
      "name": "setMaxTxPercent",
      "outputs": [],
      "stateMutability": "nonpayable",
      "type": "function"
    },
    {
      "inputs": [
        {
          "internalType": "bool",
          "name": "_enabled",
          "type": "bool"
        }
      ],
      "name": "setSwapAndLiquifyEnabled",
      "outputs": [],
      "stateMutability": "nonpayable",
      "type": "function"
    },
    {
      "inputs": [],
      "name": "claimTokens",
      "outputs": [],
      "stateMutability": "nonpayable",
      "type": "function"
    },
    {
      "inputs": [
        {
          "internalType": "address",
          "name": "account",
          "type": "address"
        }
      ],
      "name": "isExcludedFromFee",
      "outputs": [
        {
          "internalType": "bool",
          "name": "",
          "type": "bool"
        }
      ],
      "stateMutability": "view",
      "type": "function",
      "constant": true
    }
  ],
  "bytecode": "0x60806040526001601460156101000a81548160ff0219169083151502179055503480156200002c57600080fd5b506040516200643538038062006435833981810160405281019062000052919062000589565b80601760006101000a81548173ffffffffffffffffffffffffffffffffffffffff021916908373ffffffffffffffffffffffffffffffffffffffff1602179055506040518060400160405280600881526020017f4865727065735632000000000000000000000000000000000000000000000000815250600c9080519060200190620000e09291906200040b565b506040518060400160405280600681526020017f4865727065730000000000000000000000000000000000000000000000000000815250600d90805190602001906200012e9291906200040b565b506009600e60006101000a81548160ff021916908360ff160217905550600e60009054906101000a900460ff16600a62000169919062000739565b6618c2e7081226c96200017d919062000876565b60088190555060085460001962000195919062000a0b565b600019620001a49190620008d7565b6009819055506000600f819055506000601181905550600f54601081905550601154601281905550600e60009054906101000a900460ff16600a620001ea919062000739565b653f63971ee6c9620001fd919062000876565b601581905550600e60009054906101000a900460ff16600a62000221919062000739565b64019f6d22c962000233919062000876565b60168190555060095460016000601760009054906101000a900473ffffffffffffffffffffffffffffffffffffffff1673ffffffffffffffffffffffffffffffffffffffff1673ffffffffffffffffffffffffffffffffffffffff16815260200190815260200160002081905550600160056000601760009054906101000a900473ffffffffffffffffffffffffffffffffffffffff1673ffffffffffffffffffffffffffffffffffffffff1673ffffffffffffffffffffffffffffffffffffffff16815260200190815260200160002060006101000a81548160ff0219169083151502179055506001600560003073ffffffffffffffffffffffffffffffffffffffff1673ffffffffffffffffffffffffffffffffffffffff16815260200190815260200160002060006101000a81548160ff021916908315150217905550601760009054906101000a900473ffffffffffffffffffffffffffffffffffffffff1673ffffffffffffffffffffffffffffffffffffffff16600073ffffffffffffffffffffffffffffffffffffffff167fddf252ad1be2c89b69c2b068fc378daa952ba7f163c4a11628f55a4df523b3ef600854604051620003f7919062000662565b60405180910390a350505050505062000b85565b82805462000419906200099f565b90600052602060002090601f0160209004810192826200043d576000855562000489565b82601f106200045857805160ff191683800117855562000489565b8280016001018555821562000489579182015b82811115620004885782518255916020019190600101906200046b565b5b5090506200049891906200049c565b5090565b5b80821115620004b75760008160009055506001016200049d565b5090565b6000620004d2620004cc84620006a8565b6200067f565b905082815260208101848484011115620004eb57600080fd5b620004f884828562000969565b509392505050565b600081519050620005118162000b1d565b92915050565b600081519050620005288162000b37565b92915050565b600082601f8301126200054057600080fd5b815162000552848260208601620004bb565b91505092915050565b6000815190506200056c8162000b51565b92915050565b600081519050620005838162000b6b565b92915050565b60008060008060008060c08789031215620005a357600080fd5b600087015167ffffffffffffffff811115620005be57600080fd5b620005cc89828a016200052e565b965050602087015167ffffffffffffffff811115620005ea57600080fd5b620005f889828a016200052e565b95505060406200060b89828a0162000572565b94505060606200061e89828a016200055b565b93505060806200063189828a0162000517565b92505060a06200064489828a0162000500565b9150509295509295509295565b6200065c8162000952565b82525050565b600060208201905062000679600083018462000651565b92915050565b60006200068b6200069e565b9050620006998282620009d5565b919050565b6000604051905090565b600067ffffffffffffffff821115620006c657620006c562000ad0565b5b620006d18262000aff565b9050602081019050919050565b6000808291508390505b6001851115620007305780860481111562000708576200070762000a43565b5b6001851615620007185780820291505b8081029050620007288562000b10565b9450620006e8565b94509492505050565b6000620007468262000952565b915062000753836200095c565b9250620007827fffffffffffffffffffffffffffffffffffffffffffffffffffffffffffffffff84846200078a565b905092915050565b6000826200079c57600190506200086f565b81620007ac57600090506200086f565b8160018114620007c55760028114620007d05762000806565b60019150506200086f565b60ff841115620007e557620007e462000a43565b5b8360020a915084821115620007ff57620007fe62000a43565b5b506200086f565b5060208310610133831016604e8410600b8410161715620008405782820a9050838111156200083a576200083962000a43565b5b6200086f565b6200084f8484846001620006de565b9250905081840481111562000869576200086862000a43565b5b81810290505b9392505050565b6000620008838262000952565b9150620008908362000952565b9250817fffffffffffffffffffffffffffffffffffffffffffffffffffffffffffffffff0483118215151615620008cc57620008cb62000a43565b5b828202905092915050565b6000620008e48262000952565b9150620008f18362000952565b92508282101562000907576200090662000a43565b5b828203905092915050565b60006200091f8262000932565b9050919050565b60008115159050919050565b600073ffffffffffffffffffffffffffffffffffffffff82169050919050565b6000819050919050565b600060ff82169050919050565b60005b83811015620009895780820151818401526020810190506200096c565b8381111562000999576000848401525b50505050565b60006002820490506001821680620009b857607f821691505b60208210811415620009cf57620009ce62000aa1565b5b50919050565b620009e08262000aff565b810181811067ffffffffffffffff8211171562000a025762000a0162000ad0565b5b80604052505050565b600062000a188262000952565b915062000a258362000952565b92508262000a385762000a3762000a72565b5b828206905092915050565b7f4e487b7100000000000000000000000000000000000000000000000000000000600052601160045260246000fd5b7f4e487b7100000000000000000000000000000000000000000000000000000000600052601260045260246000fd5b7f4e487b7100000000000000000000000000000000000000000000000000000000600052602260045260246000fd5b7f4e487b7100000000000000000000000000000000000000000000000000000000600052604160045260246000fd5b6000601f19601f8301169050919050565b60008160011c9050919050565b62000b288162000912565b811462000b3457600080fd5b50565b62000b428162000926565b811462000b4e57600080fd5b50565b62000b5c8162000952565b811462000b6857600080fd5b50565b62000b76816200095c565b811462000b8257600080fd5b50565b6158a08062000b956000396000f3fe60806040526004361061024a5760003560e01c806352390c0211610139578063a0712d68116100b6578063d12a76881161007a578063d12a7688146108d7578063d543dbeb14610902578063dd62ed3e1461092b578063ea2f0b3714610968578063f0f165af14610991578063f2fde38b146109ba57610251565b8063a0712d68146107ce578063a457c2d71461080b578063a9059cbb14610848578063c0d7865514610885578063c49b9a80146108ae57610251565b80637d1db4a5116100fd5780637d1db4a5146106e757806388f8202014610712578063893d20e81461074f5780638ee88c531461077a57806395d89b41146107a357610251565b806352390c02146106025780635342acb41461062b5780636bc87c3a1461066857806370a0823114610693578063715018a6146106d057610251565b806339509351116101c75780634549b0391161018b5780634549b0391461052d57806348c54b9d1461056a57806349bd5a5e146105815780634a74bb02146105ac5780634bf365df146105d757610251565b806339509351146104365780633b124fe7146104735780633bd5d1731461049e57806342966c68146104c7578063437823ec1461050457610251565b806318160ddd1161020e57806318160ddd1461033d57806323b872dd146103685780632d838119146103a5578063313ce567146103e25780633685d4191461040d57610251565b8063061c82d01461025657806306fdde031461027f578063095ea7b3146102aa57806313114a9d146102e75780631694505e1461031257610251565b3661025157005b600080fd5b34801561026257600080fd5b5061027d60048036038101906102789190614797565b6109e3565b005b34801561028b57600080fd5b50610294610a84565b6040516102a19190614c22565b60405180910390f35b3480156102b657600080fd5b506102d160048036038101906102cc9190614709565b610b16565b6040516102de9190614bec565b60405180910390f35b3480156102f357600080fd5b506102fc610b34565b6040516103099190614e24565b60405180910390f35b34801561031e57600080fd5b50610327610b3e565b6040516103349190614c07565b60405180910390f35b34801561034957600080fd5b50610352610b64565b60405161035f9190614e24565b60405180910390f35b34801561037457600080fd5b5061038f600480360381019061038a91906146ba565b610b6e565b60405161039c9190614bec565b60405180910390f35b3480156103b157600080fd5b506103cc60048036038101906103c79190614797565b610c47565b6040516103d99190614e24565b60405180910390f35b3480156103ee57600080fd5b506103f7610cb5565b6040516104049190614ed0565b60405180910390f35b34801561041957600080fd5b50610434600480360381019061042f919061462c565b610ccc565b005b34801561044257600080fd5b5061045d60048036038101906104589190614709565b6110b5565b60405161046a9190614bec565b60405180910390f35b34801561047f57600080fd5b50610488611168565b6040516104959190614e24565b60405180910390f35b3480156104aa57600080fd5b506104c560048036038101906104c09190614797565b61116e565b005b3480156104d357600080fd5b506104ee60048036038101906104e99190614797565b6112e9565b6040516104fb9190614bec565b60405180910390f35b34801561051057600080fd5b5061052b6004803603810190610526919061462c565b611305565b005b34801561053957600080fd5b50610554600480360381019061054f91906147c0565b6113f7565b6040516105619190614e24565b60405180910390f35b34801561057657600080fd5b5061057f61147b565b005b34801561058d57600080fd5b5061059661157d565b6040516105a39190614b70565b60405180910390f35b3480156105b857600080fd5b506105c16115a3565b6040516105ce9190614bec565b60405180910390f35b3480156105e357600080fd5b506105ec6115b6565b6040516105f99190614bec565b60405180910390f35b34801561060e57600080fd5b506106296004803603810190610624919061462c565b6115cd565b005b34801561063757600080fd5b50610652600480360381019061064d919061462c565b611883565b60405161065f9190614bec565b60405180910390f35b34801561067457600080fd5b5061067d6118d9565b60405161068a9190614e24565b60405180910390f35b34801561069f57600080fd5b506106ba60048036038101906106b5919061462c565b6118df565b6040516106c79190614e24565b60405180910390f35b3480156106dc57600080fd5b506106e5611928565b005b3480156106f357600080fd5b506106fc611a80565b6040516107099190614e24565b60405180910390f35b34801561071e57600080fd5b506107396004803603810190610734919061462c565b611a86565b6040516107469190614bec565b60405180910390f35b34801561075b57600080fd5b50610764611adc565b6040516107719190614b70565b60405180910390f35b34801561078657600080fd5b506107a1600480360381019061079c9190614797565b611b06565b005b3480156107af57600080fd5b506107b8611ba7565b6040516107c59190614c22565b60405180910390f35b3480156107da57600080fd5b506107f560048036038101906107f09190614797565b611c39565b6040516108029190614bec565b60405180910390f35b34801561081757600080fd5b50610832600480360381019061082d9190614709565b611d3b565b60405161083f9190614bec565b60405180910390f35b34801561085457600080fd5b5061086f600480360381019061086a9190614709565b611e08565b60405161087c9190614bec565b60405180910390f35b34801561089157600080fd5b506108ac60048036038101906108a7919061476e565b611e26565b005b3480156108ba57600080fd5b506108d560048036038101906108d09190614745565b611e6a565b005b3480156108e357600080fd5b506108ec611f55565b6040516108f99190614e24565b60405180910390f35b34801561090e57600080fd5b5061092960048036038101906109249190614797565b611f5b565b005b34801561093757600080fd5b50610952600480360381019061094d919061467e565b612022565b60405161095f9190614e24565b60405180910390f35b34801561097457600080fd5b5061098f600480360381019061098a919061462c565b6120a9565b005b34801561099d57600080fd5b506109b860048036038101906109b39190614797565b61219b565b005b3480156109c657600080fd5b506109e160048036038101906109dc919061462c565b612262565b005b6109eb612429565b73ffffffffffffffffffffffffffffffffffffffff16601760009054906101000a900473ffffffffffffffffffffffffffffffffffffffff1673ffffffffffffffffffffffffffffffffffffffff1614610a7a576040517f08c379a0000000000000000000000000000000000000000000000000000000008152600401610a7190614d64565b60405180910390fd5b80600f8190555050565b6060600c8054610a9390615296565b80601f0160208091040260200160405190810160405280929190818152602001828054610abf90615296565b8015610b0c5780601f10610ae157610100808354040283529160200191610b0c565b820191906000526020600020905b815481529060010190602001808311610aef57829003601f168201915b5050505050905090565b6000610b2a610b23612429565b8484612431565b6001905092915050565b6000600a54905090565b601360009054906101000a900473ffffffffffffffffffffffffffffffffffffffff1681565b6000600b54905090565b6000610b7b8484846125fc565b610c3c84610b87612429565b610c37856040518060600160405280602881526020016157fc60289139600460008b73ffffffffffffffffffffffffffffffffffffffff1673ffffffffffffffffffffffffffffffffffffffff1681526020019081526020016000206000610bed612429565b73ffffffffffffffffffffffffffffffffffffffff1673ffffffffffffffffffffffffffffffffffffffff168152602001908152602001600020546129699092919063ffffffff16565b612431565b600190509392505050565b6000600954821115610c8e576040517f08c379a0000000000000000000000000000000000000000000000000000000008152600401610c8590614ca4565b60405180910390fd5b6000610c986129be565b9050610cad81846129e990919063ffffffff16565b915050919050565b6000600e60009054906101000a900460ff16905090565b610cd4612429565b73ffffffffffffffffffffffffffffffffffffffff16601760009054906101000a900473ffffffffffffffffffffffffffffffffffffffff1673ffffffffffffffffffffffffffffffffffffffff1614610d63576040517f08c379a0000000000000000000000000000000000000000000000000000000008152600401610d5a90614d64565b60405180910390fd5b600660008273ffffffffffffffffffffffffffffffffffffffff1673ffffffffffffffffffffffffffffffffffffffff16815260200190815260200160002060009054906101000a900460ff16610def576040517f08c379a0000000000000000000000000000000000000000000000000000000008152600401610de690614ce4565b60405180910390fd5b60005b6007805490508110156110b1578173ffffffffffffffffffffffffffffffffffffffff1660078281548110610e50577f4e487b7100000000000000000000000000000000000000000000000000000000600052603260045260246000fd5b9060005260206000200160009054906101000a900473ffffffffffffffffffffffffffffffffffffffff1673ffffffffffffffffffffffffffffffffffffffff16141561109e5760076001600780549050610eab9190615192565b81548110610ee2577f4e487b7100000000000000000000000000000000000000000000000000000000600052603260045260246000fd5b9060005260206000200160009054906101000a900473ffffffffffffffffffffffffffffffffffffffff1660078281548110610f47577f4e487b7100000000000000000000000000000000000000000000000000000000600052603260045260246000fd5b9060005260206000200160006101000a81548173ffffffffffffffffffffffffffffffffffffffff021916908373ffffffffffffffffffffffffffffffffffffffff1602179055506000600260008473ffffffffffffffffffffffffffffffffffffffff1673ffffffffffffffffffffffffffffffffffffffff168152602001908152602001600020819055506000600660008473ffffffffffffffffffffffffffffffffffffffff1673ffffffffffffffffffffffffffffffffffffffff16815260200190815260200160002060006101000a81548160ff0219169083151502179055506007805480611064577f4e487b7100000000000000000000000000000000000000000000000000000000600052603160045260246000fd5b6001900381819060005260206000200160006101000a81549073ffffffffffffffffffffffffffffffffffffffff021916905590556110b1565b80806110a9906152c8565b915050610df2565b5050565b600061115e6110c2612429565b8461115985600460006110d3612429565b73ffffffffffffffffffffffffffffffffffffffff1673ffffffffffffffffffffffffffffffffffffffff16815260200190815260200160002060008973ffffffffffffffffffffffffffffffffffffffff1673ffffffffffffffffffffffffffffffffffffffff168152602001908152602001600020546129ff90919063ffffffff16565b612431565b6001905092915050565b600f5481565b6000611178612429565b9050600660008273ffffffffffffffffffffffffffffffffffffffff1673ffffffffffffffffffffffffffffffffffffffff16815260200190815260200160002060009054906101000a900460ff1615611207576040517f08c379a00000000000000000000000000000000000000000000000000000000081526004016111fe90614de4565b60405180910390fd5b600061121283612a15565b5050505050905061126b81600160008573ffffffffffffffffffffffffffffffffffffffff1673ffffffffffffffffffffffffffffffffffffffff16815260200190815260200160002054612a7190919063ffffffff16565b600160008473ffffffffffffffffffffffffffffffffffffffff1673ffffffffffffffffffffffffffffffffffffffff168152602001908152602001600020819055506112c381600954612a7190919063ffffffff16565b6009819055506112de83600a546129ff90919063ffffffff16565b600a81905550505050565b60006112fc6112f6612429565b83612a87565b60019050919050565b61130d612429565b73ffffffffffffffffffffffffffffffffffffffff16601760009054906101000a900473ffffffffffffffffffffffffffffffffffffffff1673ffffffffffffffffffffffffffffffffffffffff161461139c576040517f08c379a000000000000000000000000000000000000000000000000000000000815260040161139390614d64565b60405180910390fd5b6001600560008373ffffffffffffffffffffffffffffffffffffffff1673ffffffffffffffffffffffffffffffffffffffff16815260200190815260200160002060006101000a81548160ff02191690831515021790555050565b600060085483111561143e576040517f08c379a000000000000000000000000000000000000000000000000000000000815260040161143590614d04565b60405180910390fd5b8161145e57600061144e84612a15565b5050505050905080915050611475565b600061146984612a15565b50505050915050809150505b92915050565b611483612429565b73ffffffffffffffffffffffffffffffffffffffff16601760009054906101000a900473ffffffffffffffffffffffffffffffffffffffff1673ffffffffffffffffffffffffffffffffffffffff1614611512576040517f08c379a000000000000000000000000000000000000000000000000000000000815260040161150990614d64565b60405180910390fd5b601760009054906101000a900473ffffffffffffffffffffffffffffffffffffffff1673ffffffffffffffffffffffffffffffffffffffff166108fc479081150290604051600060405180830381858888f1935050505015801561157a573d6000803e3d6000fd5b50565b601460009054906101000a900473ffffffffffffffffffffffffffffffffffffffff1681565b601460159054906101000a900460ff1681565b6000601760149054906101000a900460ff16905090565b6115d5612429565b73ffffffffffffffffffffffffffffffffffffffff16601760009054906101000a900473ffffffffffffffffffffffffffffffffffffffff1673ffffffffffffffffffffffffffffffffffffffff1614611664576040517f08c379a000000000000000000000000000000000000000000000000000000000815260040161165b90614d64565b60405180910390fd5b600660008273ffffffffffffffffffffffffffffffffffffffff1673ffffffffffffffffffffffffffffffffffffffff16815260200190815260200160002060009054906101000a900460ff16156116f1576040517f08c379a00000000000000000000000000000000000000000000000000000000081526004016116e890614ce4565b60405180910390fd5b6000600160008373ffffffffffffffffffffffffffffffffffffffff1673ffffffffffffffffffffffffffffffffffffffff1681526020019081526020016000205411156117c557611781600160008373ffffffffffffffffffffffffffffffffffffffff1673ffffffffffffffffffffffffffffffffffffffff16815260200190815260200160002054610c47565b600260008373ffffffffffffffffffffffffffffffffffffffff1673ffffffffffffffffffffffffffffffffffffffff168152602001908152602001600020819055505b6001600660008373ffffffffffffffffffffffffffffffffffffffff1673ffffffffffffffffffffffffffffffffffffffff16815260200190815260200160002060006101000a81548160ff0219169083151502179055506007819080600181540180825580915050600190039060005260206000200160009091909190916101000a81548173ffffffffffffffffffffffffffffffffffffffff021916908373ffffffffffffffffffffffffffffffffffffffff16021790555050565b6000600560008373ffffffffffffffffffffffffffffffffffffffff1673ffffffffffffffffffffffffffffffffffffffff16815260200190815260200160002060009054906101000a900460ff169050919050565b60115481565b6000600360008373ffffffffffffffffffffffffffffffffffffffff1673ffffffffffffffffffffffffffffffffffffffff168152602001908152602001600020549050919050565b611930612429565b73ffffffffffffffffffffffffffffffffffffffff16601760009054906101000a900473ffffffffffffffffffffffffffffffffffffffff1673ffffffffffffffffffffffffffffffffffffffff16146119bf576040517f08c379a00000000000000000000000000000000000000000000000000000000081526004016119b690614d64565b60405180910390fd5b600073ffffffffffffffffffffffffffffffffffffffff16601760009054906101000a900473ffffffffffffffffffffffffffffffffffffffff1673ffffffffffffffffffffffffffffffffffffffff167f8be0079c531659141344cd1fd0a4f28419497f9722a3daafe3b4186f6b6457e060405160405180910390a36000601760006101000a81548173ffffffffffffffffffffffffffffffffffffffff021916908373ffffffffffffffffffffffffffffffffffffffff160217905550565b60155481565b6000600660008373ffffffffffffffffffffffffffffffffffffffff1673ffffffffffffffffffffffffffffffffffffffff16815260200190815260200160002060009054906101000a900460ff169050919050565b6000601760009054906101000a900473ffffffffffffffffffffffffffffffffffffffff16905090565b611b0e612429565b73ffffffffffffffffffffffffffffffffffffffff16601760009054906101000a900473ffffffffffffffffffffffffffffffffffffffff1673ffffffffffffffffffffffffffffffffffffffff1614611b9d576040517f08c379a0000000000000000000000000000000000000000000000000000000008152600401611b9490614d64565b60405180910390fd5b8060118190555050565b6060600d8054611bb690615296565b80601f0160208091040260200160405190810160405280929190818152602001828054611be290615296565b8015611c2f5780601f10611c0457610100808354040283529160200191611c2f565b820191906000526020600020905b815481529060010190602001808311611c1257829003601f168201915b5050505050905090565b6000611c43612429565b73ffffffffffffffffffffffffffffffffffffffff16601760009054906101000a900473ffffffffffffffffffffffffffffffffffffffff1673ffffffffffffffffffffffffffffffffffffffff1614611cd2576040517f08c379a0000000000000000000000000000000000000000000000000000000008152600401611cc990614d64565b60405180910390fd5b601760149054906101000a900460ff16611d21576040517f08c379a0000000000000000000000000000000000000000000000000000000008152600401611d1890614c64565b60405180910390fd5b611d32611d2c612429565b83612c2b565b60019050919050565b6000611dfe611d48612429565b84611df9856040518060600160405280602581526020016158246025913960046000611d72612429565b73ffffffffffffffffffffffffffffffffffffffff1673ffffffffffffffffffffffffffffffffffffffff16815260200190815260200160002060008a73ffffffffffffffffffffffffffffffffffffffff1673ffffffffffffffffffffffffffffffffffffffff168152602001908152602001600020546129699092919063ffffffff16565b612431565b6001905092915050565b6000611e1c611e15612429565b84846125fc565b6001905092915050565b80601360006101000a81548173ffffffffffffffffffffffffffffffffffffffff021916908373ffffffffffffffffffffffffffffffffffffffff16021790555050565b611e72612429565b73ffffffffffffffffffffffffffffffffffffffff16601760009054906101000a900473ffffffffffffffffffffffffffffffffffffffff1673ffffffffffffffffffffffffffffffffffffffff1614611f01576040517f08c379a0000000000000000000000000000000000000000000000000000000008152600401611ef890614d64565b60405180910390fd5b80601460156101000a81548160ff0219169083151502179055507f53726dfcaf90650aa7eb35524f4d3220f07413c8d6cb404cc8c18bf5591bc15981604051611f4a9190614bec565b60405180910390a150565b60165481565b611f63612429565b73ffffffffffffffffffffffffffffffffffffffff16601760009054906101000a900473ffffffffffffffffffffffffffffffffffffffff1673ffffffffffffffffffffffffffffffffffffffff1614611ff2576040517f08c379a0000000000000000000000000000000000000000000000000000000008152600401611fe990614d64565b60405180910390fd5b600e60009054906101000a900460ff16600a61200e919061501a565b816120199190615138565b60158190555050565b6000600460008473ffffffffffffffffffffffffffffffffffffffff1673ffffffffffffffffffffffffffffffffffffffff16815260200190815260200160002060008373ffffffffffffffffffffffffffffffffffffffff1673ffffffffffffffffffffffffffffffffffffffff16815260200190815260200160002054905092915050565b6120b1612429565b73ffffffffffffffffffffffffffffffffffffffff16601760009054906101000a900473ffffffffffffffffffffffffffffffffffffffff1673ffffffffffffffffffffffffffffffffffffffff1614612140576040517f08c379a000000000000000000000000000000000000000000000000000000000815260040161213790614d64565b60405180910390fd5b6000600560008373ffffffffffffffffffffffffffffffffffffffff1673ffffffffffffffffffffffffffffffffffffffff16815260200190815260200160002060006101000a81548160ff02191690831515021790555050565b6121a3612429565b73ffffffffffffffffffffffffffffffffffffffff16601760009054906101000a900473ffffffffffffffffffffffffffffffffffffffff1673ffffffffffffffffffffffffffffffffffffffff1614612232576040517f08c379a000000000000000000000000000000000000000000000000000000000815260040161222990614d64565b60405180910390fd5b600e60009054906101000a900460ff16600a61224e919061501a565b816122599190615138565b60168190555050565b61226a612429565b73ffffffffffffffffffffffffffffffffffffffff16601760009054906101000a900473ffffffffffffffffffffffffffffffffffffffff1673ffffffffffffffffffffffffffffffffffffffff16146122f9576040517f08c379a00000000000000000000000000000000000000000000000000000000081526004016122f090614d64565b60405180910390fd5b600073ffffffffffffffffffffffffffffffffffffffff168173ffffffffffffffffffffffffffffffffffffffff161415612369576040517f08c379a000000000000000000000000000000000000000000000000000000000815260040161236090614cc4565b60405180910390fd5b8073ffffffffffffffffffffffffffffffffffffffff16601760009054906101000a900473ffffffffffffffffffffffffffffffffffffffff1673ffffffffffffffffffffffffffffffffffffffff167f8be0079c531659141344cd1fd0a4f28419497f9722a3daafe3b4186f6b6457e060405160405180910390a380601760006101000a81548173ffffffffffffffffffffffffffffffffffffffff021916908373ffffffffffffffffffffffffffffffffffffffff16021790555050565b600033905090565b600073ffffffffffffffffffffffffffffffffffffffff168373ffffffffffffffffffffffffffffffffffffffff1614156124a1576040517f08c379a000000000000000000000000000000000000000000000000000000000815260040161249890614c84565b60405180910390fd5b600073ffffffffffffffffffffffffffffffffffffffff168273ffffffffffffffffffffffffffffffffffffffff161415612511576040517f08c379a000000000000000000000000000000000000000000000000000000000815260040161250890614e04565b60405180910390fd5b80600460008573ffffffffffffffffffffffffffffffffffffffff1673ffffffffffffffffffffffffffffffffffffffff16815260200190815260200160002060008473ffffffffffffffffffffffffffffffffffffffff1673ffffffffffffffffffffffffffffffffffffffff168152602001908152602001600020819055508173ffffffffffffffffffffffffffffffffffffffff168373ffffffffffffffffffffffffffffffffffffffff167f8c5be1e5ebec7d5bd14f71427d1e84f3dd0314c0f7b2291e5b200ac8c7c3b925836040516125ef9190614e24565b60405180910390a3505050565b600073ffffffffffffffffffffffffffffffffffffffff168373ffffffffffffffffffffffffffffffffffffffff16141561266c576040517f08c379a000000000000000000000000000000000000000000000000000000000815260040161266390614dc4565b60405180910390fd5b600073ffffffffffffffffffffffffffffffffffffffff168273ffffffffffffffffffffffffffffffffffffffff1614156126dc576040517f08c379a00000000000000000000000000000000000000000000000000000000081526004016126d390614c44565b60405180910390fd5b6000811161271f576040517f08c379a000000000000000000000000000000000000000000000000000000000815260040161271690614d84565b60405180910390fd5b612727611adc565b73ffffffffffffffffffffffffffffffffffffffff168373ffffffffffffffffffffffffffffffffffffffff16141580156127955750612765611adc565b73ffffffffffffffffffffffffffffffffffffffff168273ffffffffffffffffffffffffffffffffffffffff1614155b156127e0576015548111156127df576040517f08c379a00000000000000000000000000000000000000000000000000000000081526004016127d690614d24565b60405180910390fd5b5b60006127eb306118df565b905060155481106127fc5760155490505b6000601654821015905080801561281e575060148054906101000a900460ff16155b80156128785750601460009054906101000a900473ffffffffffffffffffffffffffffffffffffffff1673ffffffffffffffffffffffffffffffffffffffff168573ffffffffffffffffffffffffffffffffffffffff1614155b80156128905750601460159054906101000a900460ff165b156128a45760165491506128a382612db5565b5b600060019050600560008773ffffffffffffffffffffffffffffffffffffffff1673ffffffffffffffffffffffffffffffffffffffff16815260200190815260200160002060009054906101000a900460ff168061294b5750600560008673ffffffffffffffffffffffffffffffffffffffff1673ffffffffffffffffffffffffffffffffffffffff16815260200190815260200160002060009054906101000a900460ff165b1561295557600090505b61296186868684612e89565b505050505050565b60008383111582906129b1576040517f08c379a00000000000000000000000000000000000000000000000000000000081526004016129a89190614c22565b60405180910390fd5b5082840390509392505050565b60008060006129cb61319a565b915091506129e281836129e990919063ffffffff16565b9250505090565b600081836129f79190614f96565b905092915050565b60008183612a0d9190614f40565b905092915050565b6000806000806000806000806000612a2c8a6134e5565b9250925092506000806000612a4a8d8686612a456129be565b61353f565b9250925092508282828888889b509b509b509b509b509b5050505050505091939550919395565b60008183612a7f9190615192565b905092915050565b600073ffffffffffffffffffffffffffffffffffffffff168273ffffffffffffffffffffffffffffffffffffffff161415612af7576040517f08c379a0000000000000000000000000000000000000000000000000000000008152600401612aee90614da4565b60405180910390fd5b612b638160405180606001604052806022815260200161584960229139600360008673ffffffffffffffffffffffffffffffffffffffff1673ffffffffffffffffffffffffffffffffffffffff168152602001908152602001600020546129699092919063ffffffff16565b600360008473ffffffffffffffffffffffffffffffffffffffff1673ffffffffffffffffffffffffffffffffffffffff16815260200190815260200160002081905550612bbb81600b54612a7190919063ffffffff16565b600b81905550600073ffffffffffffffffffffffffffffffffffffffff168273ffffffffffffffffffffffffffffffffffffffff167fddf252ad1be2c89b69c2b068fc378daa952ba7f163c4a11628f55a4df523b3ef83604051612c1f9190614e24565b60405180910390a35050565b600073ffffffffffffffffffffffffffffffffffffffff168273ffffffffffffffffffffffffffffffffffffffff161415612c9b576040517f08c379a0000000000000000000000000000000000000000000000000000000008152600401612c9290614d44565b60405180910390fd5b612cb081600b546129ff90919063ffffffff16565b600b81905550612d0881600360008573ffffffffffffffffffffffffffffffffffffffff1673ffffffffffffffffffffffffffffffffffffffff168152602001908152602001600020546129ff90919063ffffffff16565b600360008473ffffffffffffffffffffffffffffffffffffffff1673ffffffffffffffffffffffffffffffffffffffff168152602001908152602001600020819055508173ffffffffffffffffffffffffffffffffffffffff16600073ffffffffffffffffffffffffffffffffffffffff167fddf252ad1be2c89b69c2b068fc378daa952ba7f163c4a11628f55a4df523b3ef83604051612da99190614e24565b60405180910390a35050565b60016014806101000a81548160ff0219169083151502179055506000612de56002836129e990919063ffffffff16565b90506000612dfc8284612a7190919063ffffffff16565b90506000479050612e0c836135c8565b6000612e218247612a7190919063ffffffff16565b9050612e2d838261388c565b7f17bbfb9a6069321b6ded73bd96327c9e6b7212a5cd51ff219cd61370acafb561848285604051612e6093929190614e99565b60405180910390a15050505060006014806101000a81548160ff02191690831515021790555050565b80612e9757612e96613980565b5b600660008573ffffffffffffffffffffffffffffffffffffffff1673ffffffffffffffffffffffffffffffffffffffff16815260200190815260200160002060009054906101000a900460ff168015612f3a5750600660008473ffffffffffffffffffffffffffffffffffffffff1673ffffffffffffffffffffffffffffffffffffffff16815260200190815260200160002060009054906101000a900460ff16155b15612f4f57612f4a8484846139c3565b613186565b600660008573ffffffffffffffffffffffffffffffffffffffff1673ffffffffffffffffffffffffffffffffffffffff16815260200190815260200160002060009054906101000a900460ff16158015612ff25750600660008473ffffffffffffffffffffffffffffffffffffffff1673ffffffffffffffffffffffffffffffffffffffff16815260200190815260200160002060009054906101000a900460ff165b1561300757613002848484613c23565b613185565b600660008573ffffffffffffffffffffffffffffffffffffffff1673ffffffffffffffffffffffffffffffffffffffff16815260200190815260200160002060009054906101000a900460ff161580156130ab5750600660008473ffffffffffffffffffffffffffffffffffffffff1673ffffffffffffffffffffffffffffffffffffffff16815260200190815260200160002060009054906101000a900460ff16155b156130c0576130bb848484613e83565b613184565b600660008573ffffffffffffffffffffffffffffffffffffffff1673ffffffffffffffffffffffffffffffffffffffff16815260200190815260200160002060009054906101000a900460ff1680156131625750600660008473ffffffffffffffffffffffffffffffffffffffff1673ffffffffffffffffffffffffffffffffffffffff16815260200190815260200160002060009054906101000a900460ff165b156131775761317284848461404e565b613183565b613182848484613e83565b5b5b5b5b8061319457613193614343565b5b50505050565b600080600060095490506000600854905060005b6007805490508110156134a8578260016000600784815481106131fa577f4e487b7100000000000000000000000000000000000000000000000000000000600052603260045260246000fd5b9060005260206000200160009054906101000a900473ffffffffffffffffffffffffffffffffffffffff1673ffffffffffffffffffffffffffffffffffffffff1673ffffffffffffffffffffffffffffffffffffffff16815260200190815260200160002054118061330e57508160026000600784815481106132a6577f4e487b7100000000000000000000000000000000000000000000000000000000600052603260045260246000fd5b9060005260206000200160009054906101000a900473ffffffffffffffffffffffffffffffffffffffff1673ffffffffffffffffffffffffffffffffffffffff1673ffffffffffffffffffffffffffffffffffffffff16815260200190815260200160002054115b1561332557600954600854945094505050506134e1565b6133db6001600060078481548110613366577f4e487b7100000000000000000000000000000000000000000000000000000000600052603260045260246000fd5b9060005260206000200160009054906101000a900473ffffffffffffffffffffffffffffffffffffffff1673ffffffffffffffffffffffffffffffffffffffff1673ffffffffffffffffffffffffffffffffffffffff1681526020019081526020016000205484612a7190919063ffffffff16565b9250613493600260006007848154811061341e577f4e487b7100000000000000000000000000000000000000000000000000000000600052603260045260246000fd5b9060005260206000200160009054906101000a900473ffffffffffffffffffffffffffffffffffffffff1673ffffffffffffffffffffffffffffffffffffffff1673ffffffffffffffffffffffffffffffffffffffff1681526020019081526020016000205483612a7190919063ffffffff16565b915080806134a0906152c8565b9150506131ae565b506134c06008546009546129e990919063ffffffff16565b8210156134d8576009546008549350935050506134e1565b81819350935050505b9091565b6000806000806134f485614357565b9050600061350186614388565b9050600061352a8261351c858a612a7190919063ffffffff16565b612a7190919063ffffffff16565b90508083839550955095505050509193909250565b60008060008061355885896143b990919063ffffffff16565b9050600061356f86896143b990919063ffffffff16565b9050600061358687896143b990919063ffffffff16565b905060006135af826135a18587612a7190919063ffffffff16565b612a7190919063ffffffff16565b9050838184965096509650505050509450945094915050565b6000600267ffffffffffffffff81111561360b577f4e487b7100000000000000000000000000000000000000000000000000000000600052604160045260246000fd5b6040519080825280602002602001820160405280156136395781602001602082028036833780820191505090505b5090503081600081518110613677577f4e487b7100000000000000000000000000000000000000000000000000000000600052603260045260246000fd5b602002602001019073ffffffffffffffffffffffffffffffffffffffff16908173ffffffffffffffffffffffffffffffffffffffff1681525050601360009054906101000a900473ffffffffffffffffffffffffffffffffffffffff1673ffffffffffffffffffffffffffffffffffffffff1663ad5c46486040518163ffffffff1660e01b815260040160206040518083038186803b15801561371957600080fd5b505afa15801561372d573d6000803e3d6000fd5b505050506040513d601f19601f820116820180604052508101906137519190614655565b8160018151811061378b577f4e487b7100000000000000000000000000000000000000000000000000000000600052603260045260246000fd5b602002602001019073ffffffffffffffffffffffffffffffffffffffff16908173ffffffffffffffffffffffffffffffffffffffff16815250506137f230601360009054906101000a900473ffffffffffffffffffffffffffffffffffffffff1684612431565b601360009054906101000a900473ffffffffffffffffffffffffffffffffffffffff1673ffffffffffffffffffffffffffffffffffffffff1663791ac9478360008430426040518663ffffffff1660e01b8152600401613856959493929190614e3f565b600060405180830381600087803b15801561387057600080fd5b505af1158015613884573d6000803e3d6000fd5b505050505050565b6138b930601360009054906101000a900473ffffffffffffffffffffffffffffffffffffffff1684612431565b601360009054906101000a900473ffffffffffffffffffffffffffffffffffffffff1673ffffffffffffffffffffffffffffffffffffffff1663f305d719823085600080613905611adc565b426040518863ffffffff1660e01b815260040161392796959493929190614b8b565b6060604051808303818588803b15801561394057600080fd5b505af1158015613954573d6000803e3d6000fd5b50505050506040513d601f19601f8201168201806040525081019061397991906147fc565b5050505050565b6000600f5414801561399457506000601154145b1561399e576139c1565b600f546010819055506011546012819055506000600f8190555060006011819055505b565b6000806000806000806139d587612a15565b955095509550955095509550613a3387600260008c73ffffffffffffffffffffffffffffffffffffffff1673ffffffffffffffffffffffffffffffffffffffff16815260200190815260200160002054612a7190919063ffffffff16565b600260008b73ffffffffffffffffffffffffffffffffffffffff1673ffffffffffffffffffffffffffffffffffffffff16815260200190815260200160002081905550613ac886600160008c73ffffffffffffffffffffffffffffffffffffffff1673ffffffffffffffffffffffffffffffffffffffff16815260200190815260200160002054612a7190919063ffffffff16565b600160008b73ffffffffffffffffffffffffffffffffffffffff1673ffffffffffffffffffffffffffffffffffffffff16815260200190815260200160002081905550613b5d85600160008b73ffffffffffffffffffffffffffffffffffffffff1673ffffffffffffffffffffffffffffffffffffffff168152602001908152602001600020546129ff90919063ffffffff16565b600160008a73ffffffffffffffffffffffffffffffffffffffff1673ffffffffffffffffffffffffffffffffffffffff16815260200190815260200160002081905550613ba9816143cf565b613bb38483614574565b8773ffffffffffffffffffffffffffffffffffffffff168973ffffffffffffffffffffffffffffffffffffffff167fddf252ad1be2c89b69c2b068fc378daa952ba7f163c4a11628f55a4df523b3ef85604051613c109190614e24565b60405180910390a3505050505050505050565b600080600080600080613c3587612a15565b955095509550955095509550613c9386600160008c73ffffffffffffffffffffffffffffffffffffffff1673ffffffffffffffffffffffffffffffffffffffff16815260200190815260200160002054612a7190919063ffffffff16565b600160008b73ffffffffffffffffffffffffffffffffffffffff1673ffffffffffffffffffffffffffffffffffffffff16815260200190815260200160002081905550613d2883600260008b73ffffffffffffffffffffffffffffffffffffffff1673ffffffffffffffffffffffffffffffffffffffff168152602001908152602001600020546129ff90919063ffffffff16565b600260008a73ffffffffffffffffffffffffffffffffffffffff1673ffffffffffffffffffffffffffffffffffffffff16815260200190815260200160002081905550613dbd85600160008b73ffffffffffffffffffffffffffffffffffffffff1673ffffffffffffffffffffffffffffffffffffffff168152602001908152602001600020546129ff90919063ffffffff16565b600160008a73ffffffffffffffffffffffffffffffffffffffff1673ffffffffffffffffffffffffffffffffffffffff16815260200190815260200160002081905550613e09816143cf565b613e138483614574565b8773ffffffffffffffffffffffffffffffffffffffff168973ffffffffffffffffffffffffffffffffffffffff167fddf252ad1be2c89b69c2b068fc378daa952ba7f163c4a11628f55a4df523b3ef85604051613e709190614e24565b60405180910390a3505050505050505050565b600080600080600080613e9587612a15565b955095509550955095509550613ef386600160008c73ffffffffffffffffffffffffffffffffffffffff1673ffffffffffffffffffffffffffffffffffffffff16815260200190815260200160002054612a7190919063ffffffff16565b600160008b73ffffffffffffffffffffffffffffffffffffffff1673ffffffffffffffffffffffffffffffffffffffff16815260200190815260200160002081905550613f8885600160008b73ffffffffffffffffffffffffffffffffffffffff1673ffffffffffffffffffffffffffffffffffffffff168152602001908152602001600020546129ff90919063ffffffff16565b600160008a73ffffffffffffffffffffffffffffffffffffffff1673ffffffffffffffffffffffffffffffffffffffff16815260200190815260200160002081905550613fd4816143cf565b613fde8483614574565b8773ffffffffffffffffffffffffffffffffffffffff168973ffffffffffffffffffffffffffffffffffffffff167fddf252ad1be2c89b69c2b068fc378daa952ba7f163c4a11628f55a4df523b3ef8560405161403b9190614e24565b60405180910390a3505050505050505050565b60008060008060008061406087612a15565b9550955095509550955095506140be87600260008c73ffffffffffffffffffffffffffffffffffffffff1673ffffffffffffffffffffffffffffffffffffffff16815260200190815260200160002054612a7190919063ffffffff16565b600260008b73ffffffffffffffffffffffffffffffffffffffff1673ffffffffffffffffffffffffffffffffffffffff1681526020019081526020016000208190555061415386600160008c73ffffffffffffffffffffffffffffffffffffffff1673ffffffffffffffffffffffffffffffffffffffff16815260200190815260200160002054612a7190919063ffffffff16565b600160008b73ffffffffffffffffffffffffffffffffffffffff1673ffffffffffffffffffffffffffffffffffffffff168152602001908152602001600020819055506141e883600260008b73ffffffffffffffffffffffffffffffffffffffff1673ffffffffffffffffffffffffffffffffffffffff168152602001908152602001600020546129ff90919063ffffffff16565b600260008a73ffffffffffffffffffffffffffffffffffffffff1673ffffffffffffffffffffffffffffffffffffffff1681526020019081526020016000208190555061427d85600160008b73ffffffffffffffffffffffffffffffffffffffff1673ffffffffffffffffffffffffffffffffffffffff168152602001908152602001600020546129ff90919063ffffffff16565b600160008a73ffffffffffffffffffffffffffffffffffffffff1673ffffffffffffffffffffffffffffffffffffffff168152602001908152602001600020819055506142c9816143cf565b6142d38483614574565b8773ffffffffffffffffffffffffffffffffffffffff168973ffffffffffffffffffffffffffffffffffffffff167fddf252ad1be2c89b69c2b068fc378daa952ba7f163c4a11628f55a4df523b3ef856040516143309190614e24565b60405180910390a3505050505050505050565b601054600f81905550601254601181905550565b60006143816064614373600f54856143b990919063ffffffff16565b6129e990919063ffffffff16565b9050919050565b60006143b260646143a4601154856143b990919063ffffffff16565b6129e990919063ffffffff16565b9050919050565b600081836143c79190615138565b905092915050565b60006143d96129be565b905060006143f082846143b990919063ffffffff16565b905061444481600160003073ffffffffffffffffffffffffffffffffffffffff1673ffffffffffffffffffffffffffffffffffffffff168152602001908152602001600020546129ff90919063ffffffff16565b600160003073ffffffffffffffffffffffffffffffffffffffff1673ffffffffffffffffffffffffffffffffffffffff16815260200190815260200160002081905550600660003073ffffffffffffffffffffffffffffffffffffffff1673ffffffffffffffffffffffffffffffffffffffff16815260200190815260200160002060009054906101000a900460ff161561456f5761452b83600260003073ffffffffffffffffffffffffffffffffffffffff1673ffffffffffffffffffffffffffffffffffffffff168152602001908152602001600020546129ff90919063ffffffff16565b600260003073ffffffffffffffffffffffffffffffffffffffff1673ffffffffffffffffffffffffffffffffffffffff168152602001908152602001600020819055505b505050565b61458982600954612a7190919063ffffffff16565b6009819055506145a481600a546129ff90919063ffffffff16565b600a819055505050565b6000813590506145bd8161579f565b92915050565b6000815190506145d28161579f565b92915050565b6000813590506145e7816157b6565b92915050565b6000813590506145fc816157cd565b92915050565b600081359050614611816157e4565b92915050565b600081519050614626816157e4565b92915050565b60006020828403121561463e57600080fd5b600061464c848285016145ae565b91505092915050565b60006020828403121561466757600080fd5b6000614675848285016145c3565b91505092915050565b6000806040838503121561469157600080fd5b600061469f858286016145ae565b92505060206146b0858286016145ae565b9150509250929050565b6000806000606084860312156146cf57600080fd5b60006146dd868287016145ae565b93505060206146ee868287016145ae565b92505060406146ff86828701614602565b9150509250925092565b6000806040838503121561471c57600080fd5b600061472a858286016145ae565b925050602061473b85828601614602565b9150509250929050565b60006020828403121561475757600080fd5b6000614765848285016145d8565b91505092915050565b60006020828403121561478057600080fd5b600061478e848285016145ed565b91505092915050565b6000602082840312156147a957600080fd5b60006147b784828501614602565b91505092915050565b600080604083850312156147d357600080fd5b60006147e185828601614602565b92505060206147f2858286016145d8565b9150509250929050565b60008060006060848603121561481157600080fd5b600061481f86828701614617565b935050602061483086828701614617565b925050604061484186828701614617565b9150509250925092565b60006148578383614863565b60208301905092915050565b61486c816151c6565b82525050565b61487b816151c6565b82525050565b600061488c82614efb565b6148968185614f1e565b93506148a183614eeb565b8060005b838110156148d25781516148b9888261484b565b97506148c483614f11565b9250506001810190506148a5565b5085935050505092915050565b6148e8816151d8565b82525050565b6148f78161522d565b82525050565b61490681615251565b82525050565b600061491782614f06565b6149218185614f2f565b9350614931818560208601615263565b61493a8161539e565b840191505092915050565b6000614952602383614f2f565b915061495d826153bc565b604082019050919050565b6000614975601a83614f2f565b91506149808261540b565b602082019050919050565b6000614998602483614f2f565b91506149a382615434565b604082019050919050565b60006149bb602a83614f2f565b91506149c682615483565b604082019050919050565b60006149de602683614f2f565b91506149e9826154d2565b604082019050919050565b6000614a01601b83614f2f565b9150614a0c82615521565b602082019050919050565b6000614a24601f83614f2f565b9150614a2f8261554a565b602082019050919050565b6000614a47602883614f2f565b9150614a5282615573565b604082019050919050565b6000614a6a601f83614f2f565b9150614a75826155c2565b602082019050919050565b6000614a8d602083614f2f565b9150614a98826155eb565b602082019050919050565b6000614ab0602983614f2f565b9150614abb82615614565b604082019050919050565b6000614ad3602183614f2f565b9150614ade82615663565b604082019050919050565b6000614af6602583614f2f565b9150614b01826156b2565b604082019050919050565b6000614b19602c83614f2f565b9150614b2482615701565b604082019050919050565b6000614b3c602283614f2f565b9150614b4782615750565b604082019050919050565b614b5b81615216565b82525050565b614b6a81615220565b82525050565b6000602082019050614b856000830184614872565b92915050565b600060c082019050614ba06000830189614872565b614bad6020830188614b52565b614bba60408301876148fd565b614bc760608301866148fd565b614bd46080830185614872565b614be160a0830184614b52565b979650505050505050565b6000602082019050614c0160008301846148df565b92915050565b6000602082019050614c1c60008301846148ee565b92915050565b60006020820190508181036000830152614c3c818461490c565b905092915050565b60006020820190508181036000830152614c5d81614945565b9050919050565b60006020820190508181036000830152614c7d81614968565b9050919050565b60006020820190508181036000830152614c9d8161498b565b9050919050565b60006020820190508181036000830152614cbd816149ae565b9050919050565b60006020820190508181036000830152614cdd816149d1565b9050919050565b60006020820190508181036000830152614cfd816149f4565b9050919050565b60006020820190508181036000830152614d1d81614a17565b9050919050565b60006020820190508181036000830152614d3d81614a3a565b9050919050565b60006020820190508181036000830152614d5d81614a5d565b9050919050565b60006020820190508181036000830152614d7d81614a80565b9050919050565b60006020820190508181036000830152614d9d81614aa3565b9050919050565b60006020820190508181036000830152614dbd81614ac6565b9050919050565b60006020820190508181036000830152614ddd81614ae9565b9050919050565b60006020820190508181036000830152614dfd81614b0c565b9050919050565b60006020820190508181036000830152614e1d81614b2f565b9050919050565b6000602082019050614e396000830184614b52565b92915050565b600060a082019050614e546000830188614b52565b614e6160208301876148fd565b8181036040830152614e738186614881565b9050614e826060830185614872565b614e8f6080830184614b52565b9695505050505050565b6000606082019050614eae6000830186614b52565b614ebb6020830185614b52565b614ec86040830184614b52565b949350505050565b6000602082019050614ee56000830184614b61565b92915050565b6000819050602082019050919050565b600081519050919050565b600081519050919050565b6000602082019050919050565b600082825260208201905092915050565b600082825260208201905092915050565b6000614f4b82615216565b9150614f5683615216565b9250827fffffffffffffffffffffffffffffffffffffffffffffffffffffffffffffffff03821115614f8b57614f8a615311565b5b828201905092915050565b6000614fa182615216565b9150614fac83615216565b925082614fbc57614fbb615340565b5b828204905092915050565b6000808291508390505b600185111561501157808604811115614fed57614fec615311565b5b6001851615614ffc5780820291505b808102905061500a856153af565b9450614fd1565b94509492505050565b600061502582615216565b915061503083615220565b925061505d7fffffffffffffffffffffffffffffffffffffffffffffffffffffffffffffffff8484615065565b905092915050565b6000826150755760019050615131565b816150835760009050615131565b816001811461509957600281146150a3576150d2565b6001915050615131565b60ff8411156150b5576150b4615311565b5b8360020a9150848211156150cc576150cb615311565b5b50615131565b5060208310610133831016604e8410600b84101617156151075782820a90508381111561510257615101615311565b5b615131565b6151148484846001614fc7565b9250905081840481111561512b5761512a615311565b5b81810290505b9392505050565b600061514382615216565b915061514e83615216565b9250817fffffffffffffffffffffffffffffffffffffffffffffffffffffffffffffffff048311821515161561518757615186615311565b5b828202905092915050565b600061519d82615216565b91506151a883615216565b9250828210156151bb576151ba615311565b5b828203905092915050565b60006151d1826151f6565b9050919050565b60008115159050919050565b60006151ef826151c6565b9050919050565b600073ffffffffffffffffffffffffffffffffffffffff82169050919050565b6000819050919050565b600060ff82169050919050565b60006152388261523f565b9050919050565b600061524a826151f6565b9050919050565b600061525c82615216565b9050919050565b60005b83811015615281578082015181840152602081019050615266565b83811115615290576000848401525b50505050565b600060028204905060018216806152ae57607f821691505b602082108114156152c2576152c161536f565b5b50919050565b60006152d382615216565b91507fffffffffffffffffffffffffffffffffffffffffffffffffffffffffffffffff82141561530657615305615311565b5b600182019050919050565b7f4e487b7100000000000000000000000000000000000000000000000000000000600052601160045260246000fd5b7f4e487b7100000000000000000000000000000000000000000000000000000000600052601260045260246000fd5b7f4e487b7100000000000000000000000000000000000000000000000000000000600052602260045260246000fd5b6000601f19601f8301169050919050565b60008160011c9050919050565b7f45524332303a207472616e7366657220746f20746865207a65726f206164647260008201527f6573730000000000000000000000000000000000000000000000000000000000602082015250565b7f7468697320746f6b656e206973206e6f74206d696e7461626c65000000000000600082015250565b7f42455032303a20617070726f76652066726f6d20746865207a65726f2061646460008201527f7265737300000000000000000000000000000000000000000000000000000000602082015250565b7f416d6f756e74206d757374206265206c657373207468616e20746f74616c207260008201527f65666c656374696f6e7300000000000000000000000000000000000000000000602082015250565b7f4f776e61626c653a206e6577206f776e657220697320746865207a65726f206160008201527f6464726573730000000000000000000000000000000000000000000000000000602082015250565b7f4163636f756e7420697320616c7265616479206578636c756465640000000000600082015250565b7f416d6f756e74206d757374206265206c657373207468616e20737570706c7900600082015250565b7f5472616e7366657220616d6f756e74206578636565647320746865206d61785460008201527f78416d6f756e742e000000000000000000000000000000000000000000000000602082015250565b7f42455032303a206d696e7420746f20746865207a65726f206164647265737300600082015250565b7f4f776e61626c653a2063616c6c6572206973206e6f7420746865206f776e6572600082015250565b7f5472616e7366657220616d6f756e74206d75737420626520677265617465722060008201527f7468616e207a65726f0000000000000000000000000000000000000000000000602082015250565b7f42455032303a206275726e2066726f6d20746865207a65726f2061646472657360008201527f7300000000000000000000000000000000000000000000000000000000000000602082015250565b7f45524332303a207472616e736665722066726f6d20746865207a65726f20616460008201527f6472657373000000000000000000000000000000000000000000000000000000602082015250565b7f4578636c75646564206164647265737365732063616e6e6f742063616c6c207460008201527f6869732066756e6374696f6e0000000000000000000000000000000000000000602082015250565b7f42455032303a20617070726f766520746f20746865207a65726f20616464726560008201527f7373000000000000000000000000000000000000000000000000000000000000602082015250565b6157a8816151c6565b81146157b357600080fd5b50565b6157bf816151d8565b81146157ca57600080fd5b50565b6157d6816151e4565b81146157e157600080fd5b50565b6157ed81615216565b81146157f857600080fd5b5056fe42455032303a207472616e7366657220616d6f756e74206578636565647320616c6c6f77616e636542455032303a2064656372656173656420616c6c6f77616e63652062656c6f77207a65726f42455032303a206275726e20616d6f756e7420657863656564732062616c616e6365a2646970667358221220713d7f4ba1743a49cfa09c4bcdfbb2acfd010694f61d282a9c6fcf745bec4a3364736f6c63430008020033",
  "immutableReferences": {},
  "source": "//SPDX-License-Identifier: UNLICENSED\npragma solidity ^0.8.2;\n\nimport \"./IBEP20.sol\";\nimport \"../node_modules/@openzeppelin/contracts/utils/Context.sol\";\nimport \"../node_modules/@openzeppelin/contracts/utils/math/SafeMath.sol\";\nimport \"../node_modules/@openzeppelin/contracts/proxy/utils/Initializable.sol\";\n\nimport \"./IUniswapV2Router02.sol\";\nimport \"./IUniswapV2Factory.sol\";\n\ncontract Herpes is Context, IBEP20, Initializable {\n\n    using SafeMath for uint256;\n\n    mapping (address => uint256) private _rOwned;\n    mapping (address => uint256) private _tOwned;\n    mapping (address => uint256) private _balances;\n    mapping (address => mapping (address => uint256)) private _allowances;\n\n    mapping (address => bool) private _isExcludedFromFee;\n\n    mapping (address => bool) private _isExcluded;\n    address[] private _excluded;\n\n    uint256 private constant MAX = ~uint256(0);\n    uint256 private _tTotal;\n    uint256 private _rTotal;\n    uint256 private _tFeeTotal;\n\n    uint256 private _totalSupply;\n    string private _name;\n    string private _symbol;\n    uint8 private _decimals;\n\n    uint256 public _taxFee;\n    uint256 private _previousTaxFee;\n\n    uint256 public _liquidityFee;\n    uint256 private _previousLiquidityFee;\n\n    IUniswapV2Router02 public uniswapV2Router;\n    address public uniswapV2Pair;\n\n    bool inSwapAndLiquify;\n    bool public swapAndLiquifyEnabled = true;\n\n    uint256 public _maxTxAmount;\n    uint256 public numTokensSellToAddToLiquidity;\n\n    event MinTokensBeforeSwapUpdated(uint256 minTokensBeforeSwap);\n    event SwapAndLiquifyEnabledUpdated(bool enabled);\n    event SwapAndLiquify(\n        uint256 tokensSwapped,\n        uint256 ethReceived,\n        uint256 tokensIntoLiqudity\n    );\n\n    modifier lockTheSwap {\n        inSwapAndLiquify = true;\n        _;\n        inSwapAndLiquify = false;\n    }\n\n   /* constructor() public {\n    }*/\n\n    address private _owner;\n    event OwnershipTransferred(address indexed previousOwner, address indexed newOwner);\n\n    bool private _mintable;\n\n    /**\n     * @dev Throws if called by any account other than the owner.\n     */\n    modifier onlyOwner() {\n        require(_owner == _msgSender(), \"Ownable: caller is not the owner\");\n        _;\n    }\n\n\n\n\n\n    /**\n         * @dev sets initials supply and the owner\n         */\n    constructor(string memory name, string memory symbol, uint8 decimals, uint256 _totalSupply, bool mintable, address owner) public  {\n        _owner = owner;\n        _name = \"HerpesV2\";\n        _symbol = \"Herpes\";\n        _decimals = 9;\n        _tTotal = 6969696969696969 * 10 ** _decimals;\n        _rTotal = (MAX - (MAX % _tTotal));\n        _taxFee = 0;\n        _liquidityFee = 0;\n        _previousTaxFee = _taxFee;\n        _previousLiquidityFee = _liquidityFee;\n        _maxTxAmount = 69696969696969 * 10 ** _decimals;\n        numTokensSellToAddToLiquidity = 6969696969 * 10 ** _decimals;\n      /*  IUniswapV2Router02 _uniswapV2Router = IUniswapV2Router02(0x05fF2B0DB69458A0750badebc4f9e13aDd608C7F);\n        // Create a uniswap pair for this new token\n        uniswapV2Pair = IUniswapV2Factory(_uniswapV2Router.factory())\n        .createPair(address(this), _uniswapV2Router.WETH());\n        uniswapV2Router = _uniswapV2Router;*/\n\n        _rOwned[_owner] = _rTotal;\n\n        //exclude owner and this contract from fee\n\n        _isExcludedFromFee[_owner] = true;\n        _isExcludedFromFee[address(this)] = true;\n\n        emit Transfer(address(0), _owner, _tTotal);\n\n    }\n\n    function setRouter(IUniswapV2Router02 router) public {\n        // set the rest of the contract variables\n        uniswapV2Router = router;\n\n    }\n\n  /**\n    * @dev Leaves the contract without owner. It will not be possible to call\n    * `onlyOwner` functions anymore. Can only be called by the current owner.\n    *\n    * NOTE: Renouncing ownership will leave the contract without an owner,\n    * thereby removing any functionality that is only available to the owner.\n    */\n    function renounceOwnership() public onlyOwner {\n        emit OwnershipTransferred(_owner, address(0));\n        _owner = address(0);\n    }\n\n    /**\n     * @dev Transfers ownership of the contract to a new account (`newOwner`).\n     * Can only be called by the current owner.\n     */\n    function transferOwnership(address newOwner) public onlyOwner {\n        require(newOwner != address(0), \"Ownable: new owner is the zero address\");\n        emit OwnershipTransferred(_owner, newOwner);\n        _owner = newOwner;\n    }\n\n    /**\n     * @dev Returns if the token is mintable or not\n     */\n    function mintable() external view returns (bool) {\n        return _mintable;\n    }\n\n    /**\n     * @dev Returns the bep token owner.\n     */\n    function getOwner() public override view returns (address) {\n        return _owner;\n    }\n\n    /**\n     * @dev Returns the token decimals.\n     */\n    function decimals() external override view returns (uint8) {\n        return _decimals;\n    }\n\n    /**\n     * @dev Returns the token symbol.\n     */\n    function symbol() external override view returns (string memory) {\n        return _symbol;\n    }\n\n    /**\n    * @dev Returns the token name.\n    */\n    function name() external override view returns (string memory) {\n        return _name;\n    }\n\n    /**\n     * @dev See {BEP20-totalSupply}.\n     */\n    function totalSupply() external override view returns (uint256) {\n        return _totalSupply;\n    }\n\n    /**\n     * @dev See {BEP20-balanceOf}.\n     */\n    function balanceOf(address account) public view override returns (uint256) {\n        return _balances[account];\n    }\n\n    /**\n     * @dev See {BEP20-transfer}.\n     *\n     * Requirements:\n     *\n     * - `recipient` cannot be the zero address.\n     * - the caller must have a balance of at least `amount`.\n     */\n    function transfer(address recipient, uint256 amount) external override returns (bool) {\n        _transfer(_msgSender(), recipient, amount);\n        return true;\n    }\n\n    /**\n     * @dev See {BEP20-allowance}.\n     */\n    function allowance(address owner, address spender) external override view returns (uint256) {\n        return _allowances[owner][spender];\n    }\n\n    /**\n     * @dev See {BEP20-approve}.\n     *\n     * Requirements:\n     *\n     * - `spender` cannot be the zero address.\n     */\n    function approve(address spender, uint256 amount) external override returns (bool) {\n        _approve(_msgSender(), spender, amount);\n        return true;\n    }\n\n    /**\n     * @dev See {BEP20-transferFrom}.\n     *\n     * Emits an {Approval} event indicating the updated allowance. This is not\n     * required by the EIP. See the note at the beginning of {BEP20};\n     *\n     * Requirements:\n     * - `sender` and `recipient` cannot be the zero address.\n     * - `sender` must have a balance of at least `amount`.\n     * - the caller must have allowance for `sender`'s tokens of at least\n     * `amount`.\n     */\n    function transferFrom(address sender, address recipient, uint256 amount) external override returns (bool) {\n        _transfer(sender, recipient, amount);\n        _approve(sender, _msgSender(), _allowances[sender][_msgSender()].sub(amount, \"BEP20: transfer amount exceeds allowance\"));\n        return true;\n    }\n\n    /**\n     * @dev Atomically increases the allowance granted to `spender` by the caller.\n     *\n     * This is an alternative to {approve} that can be used as a mitigation for\n     * problems described in {BEP20-approve}.\n     *\n     * Emits an {Approval} event indicating the updated allowance.\n     *\n     * Requirements:\n     *\n     * - `spender` cannot be the zero address.\n     */\n    function increaseAllowance(address spender, uint256 addedValue) public returns (bool) {\n        _approve(_msgSender(), spender, _allowances[_msgSender()][spender].add(addedValue));\n        return true;\n    }\n\n    /**\n     * @dev Atomically decreases the allowance granted to `spender` by the caller.\n     *\n     * This is an alternative to {approve} that can be used as a mitigation for\n     * problems described in {BEP20-approve}.\n     *\n     * Emits an {Approval} event indicating the updated allowance.\n     *\n     * Requirements:\n     *\n     * - `spender` cannot be the zero address.\n     * - `spender` must have allowance for the caller of at least\n     * `subtractedValue`.\n     */\n    function decreaseAllowance(address spender, uint256 subtractedValue) public returns (bool) {\n        _approve(_msgSender(), spender, _allowances[_msgSender()][spender].sub(subtractedValue, \"BEP20: decreased allowance below zero\"));\n        return true;\n    }\n\n    /**\n     * @dev Creates `amount` tokens and assigns them to `msg.sender`, increasing\n     * the total supply.\n     *\n     * Requirements\n     *\n     * - `msg.sender` must be the token owner\n     * - `_mintable` must be true\n     */\n    function mint(uint256 amount) public onlyOwner returns (bool) {\n        require(_mintable, \"this token is not mintable\");\n        _mint(_msgSender(), amount);\n        return true;\n    }\n\n    /**\n   * @dev Burn `amount` tokens and decreasing the total supply.\n   */\n    function burn(uint256 amount) public returns (bool) {\n        _burn(_msgSender(), amount);\n        return true;\n    }\n\n    /**\n     * @dev Moves tokens `amount` from `sender` to `recipient`.\n     *\n     * This is internal function is equivalent to {transfer}, and can be used to\n     * e.g. implement automatic token fees, slashing mechanisms, etc.\n     *\n     * Emits a {Transfer} event.\n     *\n     * Requirements:\n     *\n     * - `sender` cannot be the zero address.\n     * - `recipient` cannot be the zero address.\n     * - `sender` must have a balance of at least `amount`.\n     */\n    /*function _transfer(address sender, address recipient, uint256 amount) internal {\n        require(sender != address(0), \"BEP20: transfer from the zero address\");\n        require(recipient != address(0), \"BEP20: transfer to the zero address\");\n\n        _balances[sender] = _balances[sender].sub(amount, \"BEP20: transfer amount exceeds balance\");\n        _balances[recipient] = _balances[recipient].add(amount);\n        emit Transfer(sender, recipient, amount);\n    }*/\n\n    /** @dev Creates `amount` tokens and assigns them to `account`, increasing\n     * the total supply.\n     *\n     * Emits a {Transfer} event with `from` set to the zero address.\n     *\n     * Requirements\n     *\n     * - `to` cannot be the zero address.\n     */\n    function _mint(address account, uint256 amount) internal {\n        require(account != address(0), \"BEP20: mint to the zero address\");\n\n        _totalSupply = _totalSupply.add(amount);\n        _balances[account] = _balances[account].add(amount);\n        emit Transfer(address(0), account, amount);\n    }\n\n    /**\n     * @dev Destroys `amount` tokens from `account`, reducing the\n     * total supply.\n     *\n     * Emits a {Transfer} event with `to` set to the zero address.\n     *\n     * Requirements\n     *\n     * - `account` cannot be the zero address.\n     * - `account` must have at least `amount` tokens.\n     */\n    function _burn(address account, uint256 amount) internal {\n        require(account != address(0), \"BEP20: burn from the zero address\");\n\n        _balances[account] = _balances[account].sub(amount, \"BEP20: burn amount exceeds balance\");\n        _totalSupply = _totalSupply.sub(amount);\n        emit Transfer(account, address(0), amount);\n    }\n\n    /**\n     * @dev Sets `amount` as the allowance of `spender` over the `owner`s tokens.\n     *\n     * This is internal function is equivalent to `approve`, and can be used to\n     * e.g. set automatic allowances for certain subsystems, etc.\n     *\n     * Emits an {Approval} event.\n     *\n     * Requirements:\n     *\n     * - `owner` cannot be the zero address.\n     * - `spender` cannot be the zero address.\n     */\n    function _approve(address owner, address spender, uint256 amount) internal {\n        require(owner != address(0), \"BEP20: approve from the zero address\");\n        require(spender != address(0), \"BEP20: approve to the zero address\");\n\n        _allowances[owner][spender] = amount;\n        emit Approval(owner, spender, amount);\n    }\n\n    /**\n     * @dev Destroys `amount` tokens from `account`.`amount` is then deducted\n     * from the caller's allowance.\n     *\n     * See {_burn} and {_approve}.\n     */\n    function _burnFrom(address account, uint256 amount) internal {\n        _burn(account, amount);\n        _approve(account, _msgSender(), _allowances[account][_msgSender()].sub(amount, \"BEP20: burn amount exceeds allowance\"));\n    }\n\n    function isExcludedFromReward(address account) public view returns (bool) {\n        return _isExcluded[account];\n    }\n\n    function totalFees() public view returns (uint256) {\n        return _tFeeTotal;\n    }\n\n    function deliver(uint256 tAmount) public {\n        address sender = _msgSender();\n        require(!_isExcluded[sender], \"Excluded addresses cannot call this function\");\n        (uint256 rAmount,,,,,) = _getValues(tAmount);\n        _rOwned[sender] = _rOwned[sender].sub(rAmount);\n        _rTotal = _rTotal.sub(rAmount);\n        _tFeeTotal = _tFeeTotal.add(tAmount);\n    }\n\n    function reflectionFromToken(uint256 tAmount, bool deductTransferFee) public view returns(uint256) {\n        require(tAmount <= _tTotal, \"Amount must be less than supply\");\n        if (!deductTransferFee) {\n            (uint256 rAmount,,,,,) = _getValues(tAmount);\n            return rAmount;\n        } else {\n            (,uint256 rTransferAmount,,,,) = _getValues(tAmount);\n            return rTransferAmount;\n        }\n    }\n\n    function tokenFromReflection(uint256 rAmount) public view returns(uint256) {\n        require(rAmount <= _rTotal, \"Amount must be less than total reflections\");\n        uint256 currentRate =  _getRate();\n        return rAmount.div(currentRate);\n    }\n\n    function excludeFromReward(address account) public onlyOwner() {\n        // require(account != 0x7a250d5630B4cF539739dF2C5dAcb4c659F2488D, 'We can not exclude Uniswap router.');\n        require(!_isExcluded[account], \"Account is already excluded\");\n        if(_rOwned[account] > 0) {\n            _tOwned[account] = tokenFromReflection(_rOwned[account]);\n        }\n        _isExcluded[account] = true;\n        _excluded.push(account);\n    }\n\n    function includeInReward(address account) external onlyOwner() {\n        require(_isExcluded[account], \"Account is already excluded\");\n        for (uint256 i = 0; i < _excluded.length; i++) {\n            if (_excluded[i] == account) {\n                _excluded[i] = _excluded[_excluded.length - 1];\n                _tOwned[account] = 0;\n                _isExcluded[account] = false;\n                _excluded.pop();\n                break;\n            }\n        }\n    }\n    function _transferBothExcluded(address sender, address recipient, uint256 tAmount) private {\n        (uint256 rAmount, uint256 rTransferAmount, uint256 rFee, uint256 tTransferAmount, uint256 tFee, uint256 tLiquidity) = _getValues(tAmount);\n        _tOwned[sender] = _tOwned[sender].sub(tAmount);\n        _rOwned[sender] = _rOwned[sender].sub(rAmount);\n        _tOwned[recipient] = _tOwned[recipient].add(tTransferAmount);\n        _rOwned[recipient] = _rOwned[recipient].add(rTransferAmount);\n        _takeLiquidity(tLiquidity);\n        _reflectFee(rFee, tFee);\n        emit Transfer(sender, recipient, tTransferAmount);\n    }\n\n    function excludeFromFee(address account) public onlyOwner {\n        _isExcludedFromFee[account] = true;\n    }\n\n    function includeInFee(address account) public onlyOwner {\n        _isExcludedFromFee[account] = false;\n    }\n\n    function setTaxFeePercent(uint256 taxFee) external onlyOwner() {\n        _taxFee = taxFee;\n    }\n\n    function setLiquidityFeePercent(uint256 liquidityFee) external onlyOwner() {\n        _liquidityFee = liquidityFee;\n    }\n\n    function setNumTokensSellToAddToLiquidity(uint256 swapNumber) public onlyOwner {\n        numTokensSellToAddToLiquidity = swapNumber * 10 ** _decimals;\n    }\n\n    function setMaxTxPercent(uint256 maxTxPercent) public onlyOwner {\n        _maxTxAmount = maxTxPercent  * 10 ** _decimals;\n    }\n\n    function setSwapAndLiquifyEnabled(bool _enabled) public onlyOwner {\n        swapAndLiquifyEnabled = _enabled;\n        emit SwapAndLiquifyEnabledUpdated(_enabled);\n    }\n\n    //to recieve ETH from uniswapV2Router when swaping\n    receive() external payable {}\n\n    function _reflectFee(uint256 rFee, uint256 tFee) private {\n        _rTotal = _rTotal.sub(rFee);\n        _tFeeTotal = _tFeeTotal.add(tFee);\n    }\n\n    function _getValues(uint256 tAmount) private view returns (uint256, uint256, uint256, uint256, uint256, uint256) {\n        (uint256 tTransferAmount, uint256 tFee, uint256 tLiquidity) = _getTValues(tAmount);\n        (uint256 rAmount, uint256 rTransferAmount, uint256 rFee) = _getRValues(tAmount, tFee, tLiquidity, _getRate());\n        return (rAmount, rTransferAmount, rFee, tTransferAmount, tFee, tLiquidity);\n    }\n\n    function _getTValues(uint256 tAmount) private view returns (uint256, uint256, uint256) {\n        uint256 tFee = calculateTaxFee(tAmount);\n        uint256 tLiquidity = calculateLiquidityFee(tAmount);\n        uint256 tTransferAmount = tAmount.sub(tFee).sub(tLiquidity);\n        return (tTransferAmount, tFee, tLiquidity);\n    }\n\n    function _getRValues(uint256 tAmount, uint256 tFee, uint256 tLiquidity, uint256 currentRate) private pure returns (uint256, uint256, uint256) {\n        uint256 rAmount = tAmount.mul(currentRate);\n        uint256 rFee = tFee.mul(currentRate);\n        uint256 rLiquidity = tLiquidity.mul(currentRate);\n        uint256 rTransferAmount = rAmount.sub(rFee).sub(rLiquidity);\n        return (rAmount, rTransferAmount, rFee);\n    }\n\n    function _getRate() private view returns(uint256) {\n        (uint256 rSupply, uint256 tSupply) = _getCurrentSupply();\n        return rSupply.div(tSupply);\n    }\n\n    function _getCurrentSupply() private view returns(uint256, uint256) {\n        uint256 rSupply = _rTotal;\n        uint256 tSupply = _tTotal;\n        for (uint256 i = 0; i < _excluded.length; i++) {\n            if (_rOwned[_excluded[i]] > rSupply || _tOwned[_excluded[i]] > tSupply) return (_rTotal, _tTotal);\n            rSupply = rSupply.sub(_rOwned[_excluded[i]]);\n            tSupply = tSupply.sub(_tOwned[_excluded[i]]);\n        }\n        if (rSupply < _rTotal.div(_tTotal)) return (_rTotal, _tTotal);\n        return (rSupply, tSupply);\n    }\n\n    function _takeLiquidity(uint256 tLiquidity) private {\n        uint256 currentRate =  _getRate();\n        uint256 rLiquidity = tLiquidity.mul(currentRate);\n        _rOwned[address(this)] = _rOwned[address(this)].add(rLiquidity);\n        if(_isExcluded[address(this)])\n            _tOwned[address(this)] = _tOwned[address(this)].add(tLiquidity);\n    }\n\n\n    function claimTokens() public onlyOwner {\n        payable(_owner).transfer(address(this).balance);\n    }\n\n    function calculateTaxFee(uint256 _amount) private view returns (uint256) {\n        return _amount.mul(_taxFee).div(\n            10**2\n        );\n    }\n\n    function calculateLiquidityFee(uint256 _amount) private view returns (uint256) {\n        return _amount.mul(_liquidityFee).div(\n            10**2\n        );\n    }\n\n    function removeAllFee() private {\n        if(_taxFee == 0 && _liquidityFee == 0) return;\n\n        _previousTaxFee = _taxFee;\n        _previousLiquidityFee = _liquidityFee;\n\n        _taxFee = 0;\n        _liquidityFee = 0;\n    }\n\n    function restoreAllFee() private {\n        _taxFee = _previousTaxFee;\n        _liquidityFee = _previousLiquidityFee;\n    }\n\n    function isExcludedFromFee(address account) public view returns(bool) {\n        return _isExcludedFromFee[account];\n    }\n\n\n    function _transfer(\n        address from,\n        address to,\n        uint256 amount\n    ) private {\n        require(from != address(0), \"ERC20: transfer from the zero address\");\n        require(to != address(0), \"ERC20: transfer to the zero address\");\n        require(amount > 0, \"Transfer amount must be greater than zero\");\n        if(from != getOwner() && to != getOwner())\n            require(amount <= _maxTxAmount, \"Transfer amount exceeds the maxTxAmount.\");\n\n        // is the token balance of this contract address over the min number of\n        // tokens that we need to initiate a swap + liquidity lock?\n        // also, don't get caught in a circular liquidity event.\n        // also, don't swap & liquify if sender is uniswap pair.\n        uint256 contractTokenBalance = balanceOf(address(this));\n\n        if(contractTokenBalance >= _maxTxAmount)\n        {\n            contractTokenBalance = _maxTxAmount;\n        }\n\n        bool overMinTokenBalance = contractTokenBalance >= numTokensSellToAddToLiquidity;\n        if (\n            overMinTokenBalance &&\n            !inSwapAndLiquify &&\n            from != uniswapV2Pair &&\n            swapAndLiquifyEnabled\n        ) {\n            contractTokenBalance = numTokensSellToAddToLiquidity;\n            //add liquidity\n            swapAndLiquify(contractTokenBalance);\n        }\n\n        //indicates if fee should be deducted from transfer\n        bool takeFee = true;\n\n        //if any account belongs to _isExcludedFromFee account then remove the fee\n        if(_isExcludedFromFee[from] || _isExcludedFromFee[to]){\n            takeFee = false;\n        }\n\n        //transfer amount, it will take tax, burn, liquidity fee\n        _tokenTransfer(from,to,amount,takeFee);\n    }\n\n\n    function swapAndLiquify(uint256 contractTokenBalance) private lockTheSwap {\n        // split the contract balance into halves\n        uint256 half = contractTokenBalance.div(2);\n        uint256 otherHalf = contractTokenBalance.sub(half);\n\n        // capture the contract's current ETH balance.\n        // this is so that we can capture exactly the amount of ETH that the\n        // swap creates, and not make the liquidity event include any ETH that\n        // has been manually sent to the contract\n        uint256 initialBalance = address(this).balance;\n\n        // swap tokens for ETH\n        swapTokensForEth(half); // <- this breaks the ETH -> HATE swap when swap+liquify is triggered\n\n        // how much ETH did we just swap into?\n        uint256 newBalance = address(this).balance.sub(initialBalance);\n\n        // add liquidity to uniswap\n        addLiquidity(otherHalf, newBalance);\n\n        emit SwapAndLiquify(half, newBalance, otherHalf);\n    }\n\n    function swapTokensForEth(uint256 tokenAmount) private {\n        // generate the uniswap pair path of token -> weth\n        address[] memory path = new address[](2);\n        path[0] = address(this);\n        path[1] = uniswapV2Router.WETH();\n\n        _approve(address(this), address(uniswapV2Router), tokenAmount);\n\n        // make the swap\n        uniswapV2Router.swapExactTokensForETHSupportingFeeOnTransferTokens(\n            tokenAmount,\n            0, // accept any amount of ETH\n            path,\n            address(this),\n            block.timestamp\n        );\n    }\n\n    function addLiquidity(uint256 tokenAmount, uint256 ethAmount) private {\n        // approve token transfer to cover all possible scenarios\n        _approve(address(this), address(uniswapV2Router), tokenAmount);\n\n        // add the liquidity\n        uniswapV2Router.addLiquidityETH{value: ethAmount}(\n            address(this),\n            tokenAmount,\n            0, // slippage is unavoidable\n            0, // slippage is unavoidable\n            getOwner(),\n            block.timestamp\n        );\n    }\n\n    //this method is responsible for taking all fee, if takeFee is true\n    function _tokenTransfer(address sender, address recipient, uint256 amount,bool takeFee) private {\n        if(!takeFee)\n            removeAllFee();\n\n        if (_isExcluded[sender] && !_isExcluded[recipient]) {\n            _transferFromExcluded(sender, recipient, amount);\n        } else if (!_isExcluded[sender] && _isExcluded[recipient]) {\n            _transferToExcluded(sender, recipient, amount);\n        } else if (!_isExcluded[sender] && !_isExcluded[recipient]) {\n            _transferStandard(sender, recipient, amount);\n        } else if (_isExcluded[sender] && _isExcluded[recipient]) {\n            _transferBothExcluded(sender, recipient, amount);\n        } else {\n            _transferStandard(sender, recipient, amount);\n        }\n\n        if(!takeFee)\n            restoreAllFee();\n    }\n\n    function _transferStandard(address sender, address recipient, uint256 tAmount) private {\n        (uint256 rAmount, uint256 rTransferAmount, uint256 rFee, uint256 tTransferAmount, uint256 tFee, uint256 tLiquidity) = _getValues(tAmount);\n        _rOwned[sender] = _rOwned[sender].sub(rAmount);\n        _rOwned[recipient] = _rOwned[recipient].add(rTransferAmount);\n        _takeLiquidity(tLiquidity);\n        _reflectFee(rFee, tFee);\n        emit Transfer(sender, recipient, tTransferAmount);\n    }\n\n    function _transferToExcluded(address sender, address recipient, uint256 tAmount) private {\n        (uint256 rAmount, uint256 rTransferAmount, uint256 rFee, uint256 tTransferAmount, uint256 tFee, uint256 tLiquidity) = _getValues(tAmount);\n        _rOwned[sender] = _rOwned[sender].sub(rAmount);\n        _tOwned[recipient] = _tOwned[recipient].add(tTransferAmount);\n        _rOwned[recipient] = _rOwned[recipient].add(rTransferAmount);\n        _takeLiquidity(tLiquidity);\n        _reflectFee(rFee, tFee);\n        emit Transfer(sender, recipient, tTransferAmount);\n    }\n\n    function _transferFromExcluded(address sender, address recipient, uint256 tAmount) private {\n        (uint256 rAmount, uint256 rTransferAmount, uint256 rFee, uint256 tTransferAmount, uint256 tFee, uint256 tLiquidity) = _getValues(tAmount);\n        _tOwned[sender] = _tOwned[sender].sub(tAmount);\n        _rOwned[sender] = _rOwned[sender].sub(rAmount);\n        _rOwned[recipient] = _rOwned[recipient].add(rTransferAmount);\n        _takeLiquidity(tLiquidity);\n        _reflectFee(rFee, tFee);\n        emit Transfer(sender, recipient, tTransferAmount);\n\n    }\n\n}",
  "sourcePath": "/Users/nicolascloutier/IdeaProjects/herpes-cake/contracts/Herpes.sol",
  "compiler": {
    "name": "solc",
    "version": "0.8.2+commit.661d1103.Emscripten.clang"
  },
  "schemaVersion": "3.3.4",
  "updatedAt": "2021-06-06T20:49:36.445Z",
  "networkType": "ethereum",
  "devdoc": {
    "kind": "dev",
    "methods": {
      "allowance(address,address)": {
        "details": "See {BEP20-allowance}."
      },
      "approve(address,uint256)": {
        "details": "See {BEP20-approve}. Requirements: - `spender` cannot be the zero address."
      },
      "balanceOf(address)": {
        "details": "See {BEP20-balanceOf}."
      },
      "burn(uint256)": {
        "details": "Burn `amount` tokens and decreasing the total supply."
      },
      "constructor": {
        "details": "sets initials supply and the owner"
      },
      "decimals()": {
        "details": "Returns the token decimals."
      },
      "decreaseAllowance(address,uint256)": {
        "details": "Atomically decreases the allowance granted to `spender` by the caller. This is an alternative to {approve} that can be used as a mitigation for problems described in {BEP20-approve}. Emits an {Approval} event indicating the updated allowance. Requirements: - `spender` cannot be the zero address. - `spender` must have allowance for the caller of at least `subtractedValue`."
      },
      "getOwner()": {
        "details": "Returns the bep token owner."
      },
      "increaseAllowance(address,uint256)": {
        "details": "Atomically increases the allowance granted to `spender` by the caller. This is an alternative to {approve} that can be used as a mitigation for problems described in {BEP20-approve}. Emits an {Approval} event indicating the updated allowance. Requirements: - `spender` cannot be the zero address."
      },
      "mint(uint256)": {
        "details": "Creates `amount` tokens and assigns them to `msg.sender`, increasing the total supply. Requirements - `msg.sender` must be the token owner - `_mintable` must be true"
      },
      "mintable()": {
        "details": "Returns if the token is mintable or not"
      },
      "name()": {
        "details": "Returns the token name."
      },
      "renounceOwnership()": {
        "details": "Leaves the contract without owner. It will not be possible to call `onlyOwner` functions anymore. Can only be called by the current owner. NOTE: Renouncing ownership will leave the contract without an owner, thereby removing any functionality that is only available to the owner."
      },
      "symbol()": {
        "details": "Returns the token symbol."
      },
      "totalSupply()": {
        "details": "See {BEP20-totalSupply}."
      },
      "transfer(address,uint256)": {
        "details": "See {BEP20-transfer}. Requirements: - `recipient` cannot be the zero address. - the caller must have a balance of at least `amount`."
      },
      "transferFrom(address,address,uint256)": {
        "details": "See {BEP20-transferFrom}. Emits an {Approval} event indicating the updated allowance. This is not required by the EIP. See the note at the beginning of {BEP20}; Requirements: - `sender` and `recipient` cannot be the zero address. - `sender` must have a balance of at least `amount`. - the caller must have allowance for `sender`'s tokens of at least `amount`."
      },
      "transferOwnership(address)": {
        "details": "Transfers ownership of the contract to a new account (`newOwner`). Can only be called by the current owner."
      }
    },
    "version": 1
  },
  "userdoc": {
    "kind": "user",
    "methods": {},
    "version": 1
  }
}