{
  "contractName": "Herpes",
  "abi": [
    {
      "inputs": [],
      "stateMutability": "nonpayable",
      "type": "constructor"
    },
    {
      "anonymous": false,
      "inputs": [
        {
          "indexed": true,
          "internalType": "address",
          "name": "owner",
          "type": "address"
        },
        {
          "indexed": true,
          "internalType": "address",
          "name": "spender",
          "type": "address"
        },
        {
          "indexed": false,
          "internalType": "uint256",
          "name": "value",
          "type": "uint256"
        }
      ],
      "name": "Approval",
      "type": "event"
    },
    {
      "anonymous": false,
      "inputs": [
        {
          "indexed": true,
          "internalType": "address",
          "name": "previousOwner",
          "type": "address"
        },
        {
          "indexed": true,
          "internalType": "address",
          "name": "newOwner",
          "type": "address"
        }
      ],
      "name": "OwnershipTransferred",
      "type": "event"
    },
    {
      "anonymous": false,
      "inputs": [
        {
          "indexed": true,
          "internalType": "address",
          "name": "from",
          "type": "address"
        },
        {
          "indexed": true,
          "internalType": "address",
          "name": "to",
          "type": "address"
        },
        {
          "indexed": false,
          "internalType": "uint256",
          "name": "value",
          "type": "uint256"
        }
      ],
      "name": "Transfer",
      "type": "event"
    },
    {
      "inputs": [
        {
          "internalType": "string",
          "name": "__name",
          "type": "string"
        },
        {
          "internalType": "string",
          "name": "__symbol",
          "type": "string"
        },
        {
          "internalType": "uint8",
          "name": "__decimals",
          "type": "uint8"
        },
        {
          "internalType": "uint256",
          "name": "__amount",
          "type": "uint256"
        },
        {
          "internalType": "bool",
          "name": "__mintable",
          "type": "bool"
        },
        {
          "internalType": "address",
          "name": "__owner",
          "type": "address"
        }
      ],
      "name": "initialize",
      "outputs": [],
      "stateMutability": "nonpayable",
      "type": "function"
    },
    {
      "inputs": [],
      "name": "renounceOwnership",
      "outputs": [],
      "stateMutability": "nonpayable",
      "type": "function"
    },
    {
      "inputs": [
        {
          "internalType": "address",
          "name": "newOwner",
          "type": "address"
        }
      ],
      "name": "transferOwnership",
      "outputs": [],
      "stateMutability": "nonpayable",
      "type": "function"
    },
    {
      "inputs": [],
      "name": "mintable",
      "outputs": [
        {
          "internalType": "bool",
          "name": "",
          "type": "bool"
        }
      ],
      "stateMutability": "view",
      "type": "function"
    },
    {
      "inputs": [],
      "name": "getOwner",
      "outputs": [
        {
          "internalType": "address",
          "name": "",
          "type": "address"
        }
      ],
      "stateMutability": "view",
      "type": "function"
    },
    {
      "inputs": [],
      "name": "decimals",
      "outputs": [
        {
          "internalType": "uint8",
          "name": "",
          "type": "uint8"
        }
      ],
      "stateMutability": "view",
      "type": "function"
    },
    {
      "inputs": [],
      "name": "symbol",
      "outputs": [
        {
          "internalType": "string",
          "name": "",
          "type": "string"
        }
      ],
      "stateMutability": "view",
      "type": "function"
    },
    {
      "inputs": [],
      "name": "name",
      "outputs": [
        {
          "internalType": "string",
          "name": "",
          "type": "string"
        }
      ],
      "stateMutability": "view",
      "type": "function"
    },
    {
      "inputs": [],
      "name": "totalSupply",
      "outputs": [
        {
          "internalType": "uint256",
          "name": "",
          "type": "uint256"
        }
      ],
      "stateMutability": "view",
      "type": "function"
    },
    {
      "inputs": [
        {
          "internalType": "address",
          "name": "account",
          "type": "address"
        }
      ],
      "name": "balanceOf",
      "outputs": [
        {
          "internalType": "uint256",
          "name": "",
          "type": "uint256"
        }
      ],
      "stateMutability": "view",
      "type": "function"
    },
    {
      "inputs": [
        {
          "internalType": "address",
          "name": "recipient",
          "type": "address"
        },
        {
          "internalType": "uint256",
          "name": "amount",
          "type": "uint256"
        }
      ],
      "name": "transfer",
      "outputs": [
        {
          "internalType": "bool",
          "name": "",
          "type": "bool"
        }
      ],
      "stateMutability": "nonpayable",
      "type": "function"
    },
    {
      "inputs": [
        {
          "internalType": "address",
          "name": "owner",
          "type": "address"
        },
        {
          "internalType": "address",
          "name": "spender",
          "type": "address"
        }
      ],
      "name": "allowance",
      "outputs": [
        {
          "internalType": "uint256",
          "name": "",
          "type": "uint256"
        }
      ],
      "stateMutability": "view",
      "type": "function"
    },
    {
      "inputs": [
        {
          "internalType": "address",
          "name": "spender",
          "type": "address"
        },
        {
          "internalType": "uint256",
          "name": "amount",
          "type": "uint256"
        }
      ],
      "name": "approve",
      "outputs": [
        {
          "internalType": "bool",
          "name": "",
          "type": "bool"
        }
      ],
      "stateMutability": "nonpayable",
      "type": "function"
    },
    {
      "inputs": [
        {
          "internalType": "address",
          "name": "sender",
          "type": "address"
        },
        {
          "internalType": "address",
          "name": "recipient",
          "type": "address"
        },
        {
          "internalType": "uint256",
          "name": "amount",
          "type": "uint256"
        }
      ],
      "name": "transferFrom",
      "outputs": [
        {
          "internalType": "bool",
          "name": "",
          "type": "bool"
        }
      ],
      "stateMutability": "nonpayable",
      "type": "function"
    },
    {
      "inputs": [
        {
          "internalType": "address",
          "name": "spender",
          "type": "address"
        },
        {
          "internalType": "uint256",
          "name": "addedValue",
          "type": "uint256"
        }
      ],
      "name": "increaseAllowance",
      "outputs": [
        {
          "internalType": "bool",
          "name": "",
          "type": "bool"
        }
      ],
      "stateMutability": "nonpayable",
      "type": "function"
    },
    {
      "inputs": [
        {
          "internalType": "address",
          "name": "spender",
          "type": "address"
        },
        {
          "internalType": "uint256",
          "name": "subtractedValue",
          "type": "uint256"
        }
      ],
      "name": "decreaseAllowance",
      "outputs": [
        {
          "internalType": "bool",
          "name": "",
          "type": "bool"
        }
      ],
      "stateMutability": "nonpayable",
      "type": "function"
    },
    {
      "inputs": [
        {
          "internalType": "uint256",
          "name": "amount",
          "type": "uint256"
        }
      ],
      "name": "mint",
      "outputs": [
        {
          "internalType": "bool",
          "name": "",
          "type": "bool"
        }
      ],
      "stateMutability": "nonpayable",
      "type": "function"
    },
    {
      "inputs": [
        {
          "internalType": "uint256",
          "name": "amount",
          "type": "uint256"
        }
      ],
      "name": "burn",
      "outputs": [
        {
          "internalType": "bool",
          "name": "",
          "type": "bool"
        }
      ],
      "stateMutability": "nonpayable",
      "type": "function"
    }
  ],
  "bytecode": "0x608060405234801561001057600080fd5b506123b7806100206000396000f3fe608060405234801561001057600080fd5b50600436106101165760003560e01c8063715018a6116100a2578063a457c2d711610071578063a457c2d7146102f9578063a9059cbb14610329578063dd62ed3e14610359578063ef3ebcb814610389578063f2fde38b146103a557610116565b8063715018a614610283578063893d20e81461028d57806395d89b41146102ab578063a0712d68146102c957610116565b8063313ce567116100e9578063313ce567146101b757806339509351146101d557806342966c68146102055780634bf365df1461023557806370a082311461025357610116565b806306fdde031461011b578063095ea7b31461013957806318160ddd1461016957806323b872dd14610187575b600080fd5b6101236103c1565b6040516101309190611bc0565b60405180910390f35b610153600480360381019061014e9190611899565b610453565b6040516101609190611ba5565b60405180910390f35b610171610471565b60405161017e9190611d22565b60405180910390f35b6101a1600480360381019061019c919061184a565b61047b565b6040516101ae9190611ba5565b60405180910390f35b6101bf610554565b6040516101cc9190611d3d565b60405180910390f35b6101ef60048036038101906101ea9190611899565b61056b565b6040516101fc9190611ba5565b60405180910390f35b61021f600480360381019061021a919061198e565b61061e565b60405161022c9190611ba5565b60405180910390f35b61023d61063a565b60405161024a9190611ba5565b60405180910390f35b61026d600480360381019061026891906117e5565b610651565b60405161027a9190611d22565b60405180910390f35b61028b61069a565b005b6102956107f2565b6040516102a29190611b8a565b60405180910390f35b6102b361081c565b6040516102c09190611bc0565b60405180910390f35b6102e360048036038101906102de919061198e565b6108ae565b6040516102f09190611ba5565b60405180910390f35b610313600480360381019061030e9190611899565b6109b0565b6040516103209190611ba5565b60405180910390f35b610343600480360381019061033e9190611899565b610a7d565b6040516103509190611ba5565b60405180910390f35b610373600480360381019061036e919061180e565b610a9b565b6040516103809190611d22565b60405180910390f35b6103a3600480360381019061039e91906118d5565b610b22565b005b6103bf60048036038101906103ba91906117e5565b610caf565b005b6060600480546103d090611eeb565b80601f01602080910402602001604051908101604052809291908181526020018280546103fc90611eeb565b80156104495780601f1061041e57610100808354040283529160200191610449565b820191906000526020600020905b81548152906001019060200180831161042c57829003601f168201915b5050505050905090565b6000610467610460610e76565b8484610e7e565b6001905092915050565b6000600354905090565b6000610488848484611049565b61054984610494610e76565b610544856040518060600160405280602881526020016122ed60289139600260008b73ffffffffffffffffffffffffffffffffffffffff1673ffffffffffffffffffffffffffffffffffffffff16815260200190815260200160002060006104fa610e76565b73ffffffffffffffffffffffffffffffffffffffff1673ffffffffffffffffffffffffffffffffffffffff168152602001908152602001600020546112d79092919063ffffffff16565b610e7e565b600190509392505050565b6000600660009054906101000a900460ff16905090565b6000610614610578610e76565b8461060f8560026000610589610e76565b73ffffffffffffffffffffffffffffffffffffffff1673ffffffffffffffffffffffffffffffffffffffff16815260200190815260200160002060008973ffffffffffffffffffffffffffffffffffffffff1673ffffffffffffffffffffffffffffffffffffffff1681526020019081526020016000205461132c90919063ffffffff16565b610e7e565b6001905092915050565b600061063161062b610e76565b83611342565b60019050919050565b6000600660159054906101000a900460ff16905090565b6000600160008373ffffffffffffffffffffffffffffffffffffffff1673ffffffffffffffffffffffffffffffffffffffff168152602001908152602001600020549050919050565b6106a2610e76565b73ffffffffffffffffffffffffffffffffffffffff16600660019054906101000a900473ffffffffffffffffffffffffffffffffffffffff1673ffffffffffffffffffffffffffffffffffffffff1614610731576040517f08c379a000000000000000000000000000000000000000000000000000000000815260040161072890611ca2565b60405180910390fd5b600073ffffffffffffffffffffffffffffffffffffffff16600660019054906101000a900473ffffffffffffffffffffffffffffffffffffffff1673ffffffffffffffffffffffffffffffffffffffff167f8be0079c531659141344cd1fd0a4f28419497f9722a3daafe3b4186f6b6457e060405160405180910390a36000600660016101000a81548173ffffffffffffffffffffffffffffffffffffffff021916908373ffffffffffffffffffffffffffffffffffffffff160217905550565b6000600660019054906101000a900473ffffffffffffffffffffffffffffffffffffffff16905090565b60606005805461082b90611eeb565b80601f016020809104026020016040519081016040528092919081815260200182805461085790611eeb565b80156108a45780601f10610879576101008083540402835291602001916108a4565b820191906000526020600020905b81548152906001019060200180831161088757829003601f168201915b5050505050905090565b60006108b8610e76565b73ffffffffffffffffffffffffffffffffffffffff16600660019054906101000a900473ffffffffffffffffffffffffffffffffffffffff1673ffffffffffffffffffffffffffffffffffffffff1614610947576040517f08c379a000000000000000000000000000000000000000000000000000000000815260040161093e90611ca2565b60405180910390fd5b600660159054906101000a900460ff16610996576040517f08c379a000000000000000000000000000000000000000000000000000000000815260040161098d90611c02565b60405180910390fd5b6109a76109a1610e76565b836114e6565b60019050919050565b6000610a736109bd610e76565b84610a6e8560405180606001604052806025815260200161233b60259139600260006109e7610e76565b73ffffffffffffffffffffffffffffffffffffffff1673ffffffffffffffffffffffffffffffffffffffff16815260200190815260200160002060008a73ffffffffffffffffffffffffffffffffffffffff1673ffffffffffffffffffffffffffffffffffffffff168152602001908152602001600020546112d79092919063ffffffff16565b610e7e565b6001905092915050565b6000610a91610a8a610e76565b8484611049565b6001905092915050565b6000600260008473ffffffffffffffffffffffffffffffffffffffff1673ffffffffffffffffffffffffffffffffffffffff16815260200190815260200160002060008373ffffffffffffffffffffffffffffffffffffffff1673ffffffffffffffffffffffffffffffffffffffff16815260200190815260200160002054905092915050565b600060019054906101000a900460ff1680610b48575060008054906101000a900460ff16155b610b87576040517f08c379a0000000000000000000000000000000000000000000000000000000008152600401610b7e90611c62565b60405180910390fd5b60008060019054906101000a900460ff161590508015610bd7576001600060016101000a81548160ff02191690831515021790555060016000806101000a81548160ff0219169083151502179055505b81600660016101000a81548173ffffffffffffffffffffffffffffffffffffffff021916908373ffffffffffffffffffffffffffffffffffffffff1602179055508660049080519060200190610c2e929190611686565b508560059080519060200190610c45929190611686565b5084600660006101000a81548160ff021916908360ff16021790555082600660156101000a81548160ff021916908315150217905550610c8582856114e6565b8015610ca65760008060016101000a81548160ff0219169083151502179055505b50505050505050565b610cb7610e76565b73ffffffffffffffffffffffffffffffffffffffff16600660019054906101000a900473ffffffffffffffffffffffffffffffffffffffff1673ffffffffffffffffffffffffffffffffffffffff1614610d46576040517f08c379a0000000000000000000000000000000000000000000000000000000008152600401610d3d90611ca2565b60405180910390fd5b600073ffffffffffffffffffffffffffffffffffffffff168173ffffffffffffffffffffffffffffffffffffffff161415610db6576040517f08c379a0000000000000000000000000000000000000000000000000000000008152600401610dad90611c42565b60405180910390fd5b8073ffffffffffffffffffffffffffffffffffffffff16600660019054906101000a900473ffffffffffffffffffffffffffffffffffffffff1673ffffffffffffffffffffffffffffffffffffffff167f8be0079c531659141344cd1fd0a4f28419497f9722a3daafe3b4186f6b6457e060405160405180910390a380600660016101000a81548173ffffffffffffffffffffffffffffffffffffffff021916908373ffffffffffffffffffffffffffffffffffffffff16021790555050565b600033905090565b600073ffffffffffffffffffffffffffffffffffffffff168373ffffffffffffffffffffffffffffffffffffffff161415610eee576040517f08c379a0000000000000000000000000000000000000000000000000000000008152600401610ee590611c22565b60405180910390fd5b600073ffffffffffffffffffffffffffffffffffffffff168273ffffffffffffffffffffffffffffffffffffffff161415610f5e576040517f08c379a0000000000000000000000000000000000000000000000000000000008152600401610f5590611d02565b60405180910390fd5b80600260008573ffffffffffffffffffffffffffffffffffffffff1673ffffffffffffffffffffffffffffffffffffffff16815260200190815260200160002060008473ffffffffffffffffffffffffffffffffffffffff1673ffffffffffffffffffffffffffffffffffffffff168152602001908152602001600020819055508173ffffffffffffffffffffffffffffffffffffffff168373ffffffffffffffffffffffffffffffffffffffff167f8c5be1e5ebec7d5bd14f71427d1e84f3dd0314c0f7b2291e5b200ac8c7c3b9258360405161103c9190611d22565b60405180910390a3505050565b600073ffffffffffffffffffffffffffffffffffffffff168373ffffffffffffffffffffffffffffffffffffffff1614156110b9576040517f08c379a00000000000000000000000000000000000000000000000000000000081526004016110b090611be2565b60405180910390fd5b600073ffffffffffffffffffffffffffffffffffffffff168273ffffffffffffffffffffffffffffffffffffffff161415611129576040517f08c379a000000000000000000000000000000000000000000000000000000000815260040161112090611cc2565b60405180910390fd5b6111958160405180606001604052806026815260200161231560269139600160008773ffffffffffffffffffffffffffffffffffffffff1673ffffffffffffffffffffffffffffffffffffffff168152602001908152602001600020546112d79092919063ffffffff16565b600160008573ffffffffffffffffffffffffffffffffffffffff1673ffffffffffffffffffffffffffffffffffffffff1681526020019081526020016000208190555061122a81600160008573ffffffffffffffffffffffffffffffffffffffff1673ffffffffffffffffffffffffffffffffffffffff1681526020019081526020016000205461132c90919063ffffffff16565b600160008473ffffffffffffffffffffffffffffffffffffffff1673ffffffffffffffffffffffffffffffffffffffff168152602001908152602001600020819055508173ffffffffffffffffffffffffffffffffffffffff168373ffffffffffffffffffffffffffffffffffffffff167fddf252ad1be2c89b69c2b068fc378daa952ba7f163c4a11628f55a4df523b3ef836040516112ca9190611d22565b60405180910390a3505050565b600083831115829061131f576040517f08c379a00000000000000000000000000000000000000000000000000000000081526004016113169190611bc0565b60405180910390fd5b5082840390509392505050565b6000818361133a9190611dca565b905092915050565b600073ffffffffffffffffffffffffffffffffffffffff168273ffffffffffffffffffffffffffffffffffffffff1614156113b2576040517f08c379a00000000000000000000000000000000000000000000000000000000081526004016113a990611ce2565b60405180910390fd5b61141e8160405180606001604052806022815260200161236060229139600160008673ffffffffffffffffffffffffffffffffffffffff1673ffffffffffffffffffffffffffffffffffffffff168152602001908152602001600020546112d79092919063ffffffff16565b600160008473ffffffffffffffffffffffffffffffffffffffff1673ffffffffffffffffffffffffffffffffffffffff168152602001908152602001600020819055506114768160035461167090919063ffffffff16565b600381905550600073ffffffffffffffffffffffffffffffffffffffff168273ffffffffffffffffffffffffffffffffffffffff167fddf252ad1be2c89b69c2b068fc378daa952ba7f163c4a11628f55a4df523b3ef836040516114da9190611d22565b60405180910390a35050565b600073ffffffffffffffffffffffffffffffffffffffff168273ffffffffffffffffffffffffffffffffffffffff161415611556576040517f08c379a000000000000000000000000000000000000000000000000000000000815260040161154d90611c82565b60405180910390fd5b61156b8160035461132c90919063ffffffff16565b6003819055506115c381600160008573ffffffffffffffffffffffffffffffffffffffff1673ffffffffffffffffffffffffffffffffffffffff1681526020019081526020016000205461132c90919063ffffffff16565b600160008473ffffffffffffffffffffffffffffffffffffffff1673ffffffffffffffffffffffffffffffffffffffff168152602001908152602001600020819055508173ffffffffffffffffffffffffffffffffffffffff16600073ffffffffffffffffffffffffffffffffffffffff167fddf252ad1be2c89b69c2b068fc378daa952ba7f163c4a11628f55a4df523b3ef836040516116649190611d22565b60405180910390a35050565b6000818361167e9190611e20565b905092915050565b82805461169290611eeb565b90600052602060002090601f0160209004810192826116b457600085556116fb565b82601f106116cd57805160ff19168380011785556116fb565b828001600101855582156116fb579182015b828111156116fa5782518255916020019190600101906116df565b5b509050611708919061170c565b5090565b5b8082111561172557600081600090555060010161170d565b5090565b600061173c61173784611d7d565b611d58565b90508281526020810184848401111561175457600080fd5b61175f848285611ea9565b509392505050565b60008135905061177681612290565b92915050565b60008135905061178b816122a7565b92915050565b600082601f8301126117a257600080fd5b81356117b2848260208601611729565b91505092915050565b6000813590506117ca816122be565b92915050565b6000813590506117df816122d5565b92915050565b6000602082840312156117f757600080fd5b600061180584828501611767565b91505092915050565b6000806040838503121561182157600080fd5b600061182f85828601611767565b925050602061184085828601611767565b9150509250929050565b60008060006060848603121561185f57600080fd5b600061186d86828701611767565b935050602061187e86828701611767565b925050604061188f868287016117bb565b9150509250925092565b600080604083850312156118ac57600080fd5b60006118ba85828601611767565b92505060206118cb858286016117bb565b9150509250929050565b60008060008060008060c087890312156118ee57600080fd5b600087013567ffffffffffffffff81111561190857600080fd5b61191489828a01611791565b965050602087013567ffffffffffffffff81111561193157600080fd5b61193d89828a01611791565b955050604061194e89828a016117d0565b945050606061195f89828a016117bb565b935050608061197089828a0161177c565b92505060a061198189828a01611767565b9150509295509295509295565b6000602082840312156119a057600080fd5b60006119ae848285016117bb565b91505092915050565b6119c081611e54565b82525050565b6119cf81611e66565b82525050565b60006119e082611dae565b6119ea8185611db9565b93506119fa818560208601611eb8565b611a0381611fdb565b840191505092915050565b6000611a1b602583611db9565b9150611a2682611fec565b604082019050919050565b6000611a3e601a83611db9565b9150611a498261203b565b602082019050919050565b6000611a61602483611db9565b9150611a6c82612064565b604082019050919050565b6000611a84602683611db9565b9150611a8f826120b3565b604082019050919050565b6000611aa7602e83611db9565b9150611ab282612102565b604082019050919050565b6000611aca601f83611db9565b9150611ad582612151565b602082019050919050565b6000611aed602083611db9565b9150611af88261217a565b602082019050919050565b6000611b10602383611db9565b9150611b1b826121a3565b604082019050919050565b6000611b33602183611db9565b9150611b3e826121f2565b604082019050919050565b6000611b56602283611db9565b9150611b6182612241565b604082019050919050565b611b7581611e92565b82525050565b611b8481611e9c565b82525050565b6000602082019050611b9f60008301846119b7565b92915050565b6000602082019050611bba60008301846119c6565b92915050565b60006020820190508181036000830152611bda81846119d5565b905092915050565b60006020820190508181036000830152611bfb81611a0e565b9050919050565b60006020820190508181036000830152611c1b81611a31565b9050919050565b60006020820190508181036000830152611c3b81611a54565b9050919050565b60006020820190508181036000830152611c5b81611a77565b9050919050565b60006020820190508181036000830152611c7b81611a9a565b9050919050565b60006020820190508181036000830152611c9b81611abd565b9050919050565b60006020820190508181036000830152611cbb81611ae0565b9050919050565b60006020820190508181036000830152611cdb81611b03565b9050919050565b60006020820190508181036000830152611cfb81611b26565b9050919050565b60006020820190508181036000830152611d1b81611b49565b9050919050565b6000602082019050611d376000830184611b6c565b92915050565b6000602082019050611d526000830184611b7b565b92915050565b6000611d62611d73565b9050611d6e8282611f1d565b919050565b6000604051905090565b600067ffffffffffffffff821115611d9857611d97611fac565b5b611da182611fdb565b9050602081019050919050565b600081519050919050565b600082825260208201905092915050565b6000611dd582611e92565b9150611de083611e92565b9250827fffffffffffffffffffffffffffffffffffffffffffffffffffffffffffffffff03821115611e1557611e14611f4e565b5b828201905092915050565b6000611e2b82611e92565b9150611e3683611e92565b925082821015611e4957611e48611f4e565b5b828203905092915050565b6000611e5f82611e72565b9050919050565b60008115159050919050565b600073ffffffffffffffffffffffffffffffffffffffff82169050919050565b6000819050919050565b600060ff82169050919050565b82818337600083830152505050565b60005b83811015611ed6578082015181840152602081019050611ebb565b83811115611ee5576000848401525b50505050565b60006002820490506001821680611f0357607f821691505b60208210811415611f1757611f16611f7d565b5b50919050565b611f2682611fdb565b810181811067ffffffffffffffff82111715611f4557611f44611fac565b5b80604052505050565b7f4e487b7100000000000000000000000000000000000000000000000000000000600052601160045260246000fd5b7f4e487b7100000000000000000000000000000000000000000000000000000000600052602260045260246000fd5b7f4e487b7100000000000000000000000000000000000000000000000000000000600052604160045260246000fd5b6000601f19601f8301169050919050565b7f42455032303a207472616e736665722066726f6d20746865207a65726f20616460008201527f6472657373000000000000000000000000000000000000000000000000000000602082015250565b7f7468697320746f6b656e206973206e6f74206d696e7461626c65000000000000600082015250565b7f42455032303a20617070726f76652066726f6d20746865207a65726f2061646460008201527f7265737300000000000000000000000000000000000000000000000000000000602082015250565b7f4f776e61626c653a206e6577206f776e657220697320746865207a65726f206160008201527f6464726573730000000000000000000000000000000000000000000000000000602082015250565b7f496e697469616c697a61626c653a20636f6e747261637420697320616c72656160008201527f647920696e697469616c697a6564000000000000000000000000000000000000602082015250565b7f42455032303a206d696e7420746f20746865207a65726f206164647265737300600082015250565b7f4f776e61626c653a2063616c6c6572206973206e6f7420746865206f776e6572600082015250565b7f42455032303a207472616e7366657220746f20746865207a65726f206164647260008201527f6573730000000000000000000000000000000000000000000000000000000000602082015250565b7f42455032303a206275726e2066726f6d20746865207a65726f2061646472657360008201527f7300000000000000000000000000000000000000000000000000000000000000602082015250565b7f42455032303a20617070726f766520746f20746865207a65726f20616464726560008201527f7373000000000000000000000000000000000000000000000000000000000000602082015250565b61229981611e54565b81146122a457600080fd5b50565b6122b081611e66565b81146122bb57600080fd5b50565b6122c781611e92565b81146122d257600080fd5b50565b6122de81611e9c565b81146122e957600080fd5b5056fe42455032303a207472616e7366657220616d6f756e74206578636565647320616c6c6f77616e636542455032303a207472616e7366657220616d6f756e7420657863656564732062616c616e636542455032303a2064656372656173656420616c6c6f77616e63652062656c6f77207a65726f42455032303a206275726e20616d6f756e7420657863656564732062616c616e6365a26469706673582212209ecd648fee89b31bf52d8bbbec4869f6602416887be3392f2ff824ad5760a26e64736f6c63430008020033",
  "immutableReferences": {},
  "source": "//SPDX-License-Identifier: UNLICENSED\npragma solidity ^0.8.2;\n\nimport \"./IBEP20.sol\";\nimport \"../node_modules/@openzeppelin/contracts/utils/Context.sol\";\nimport \"../node_modules/@openzeppelin/contracts/utils/math/SafeMath.sol\";\nimport \"../node_modules/@openzeppelin/contracts/proxy/utils/Initializable.sol\";\n\n\ncontract Herpes is Context, IBEP20, Initializable {\n\n    using SafeMath for uint256;\n\n    mapping (address => uint256) private _balances;\n    mapping (address => mapping (address => uint256)) private _allowances;\n    uint256 private _totalSupply;\n    string private _name;\n    string private _symbol;\n    uint8 private _decimals;\n\n    address private _owner;\n    event OwnershipTransferred(address indexed previousOwner, address indexed newOwner);\n\n    bool private _mintable;\n\n      constructor() public {\n    }\n\n    /**\n     * @dev Throws if called by any account other than the owner.\n     */\n    modifier onlyOwner() {\n        require(_owner == _msgSender(), \"Ownable: caller is not the owner\");\n        _;\n    }\n\n/**\n     * @dev sets initials supply and the owner\n     */\n    function initialize(string memory __name, string memory __symbol, uint8 __decimals, uint256 __amount, bool __mintable, address __owner) public initializer {\n        _owner = __owner;\n        _name = __name;\n        _symbol = __symbol;\n        _decimals = __decimals;\n        _mintable = __mintable;\n        _mint(__owner, __amount);\n    }\n\n  /**\n    * @dev Leaves the contract without owner. It will not be possible to call\n    * `onlyOwner` functions anymore. Can only be called by the current owner.\n    *\n    * NOTE: Renouncing ownership will leave the contract without an owner,\n    * thereby removing any functionality that is only available to the owner.\n    */\n    function renounceOwnership() public onlyOwner {\n        emit OwnershipTransferred(_owner, address(0));\n        _owner = address(0);\n    }\n\n    /**\n     * @dev Transfers ownership of the contract to a new account (`newOwner`).\n     * Can only be called by the current owner.\n     */\n    function transferOwnership(address newOwner) public onlyOwner {\n        require(newOwner != address(0), \"Ownable: new owner is the zero address\");\n        emit OwnershipTransferred(_owner, newOwner);\n        _owner = newOwner;\n    }\n\n    /**\n     * @dev Returns if the token is mintable or not\n     */\n    function mintable() external view returns (bool) {\n        return _mintable;\n    }\n\n    /**\n     * @dev Returns the bep token owner.\n     */\n    function getOwner() external override view returns (address) {\n        return _owner;\n    }\n\n    /**\n     * @dev Returns the token decimals.\n     */\n    function decimals() external override view returns (uint8) {\n        return _decimals;\n    }\n\n    /**\n     * @dev Returns the token symbol.\n     */\n    function symbol() external override view returns (string memory) {\n        return _symbol;\n    }\n\n    /**\n    * @dev Returns the token name.\n    */\n    function name() external override view returns (string memory) {\n        return _name;\n    }\n\n    /**\n     * @dev See {BEP20-totalSupply}.\n     */\n    function totalSupply() external override view returns (uint256) {\n        return _totalSupply;\n    }\n\n    /**\n     * @dev See {BEP20-balanceOf}.\n     */\n    function balanceOf(address account) external override view returns (uint256) {\n        return _balances[account];\n    }\n\n    /**\n     * @dev See {BEP20-transfer}.\n     *\n     * Requirements:\n     *\n     * - `recipient` cannot be the zero address.\n     * - the caller must have a balance of at least `amount`.\n     */\n    function transfer(address recipient, uint256 amount) external override returns (bool) {\n        _transfer(_msgSender(), recipient, amount);\n        return true;\n    }\n\n    /**\n     * @dev See {BEP20-allowance}.\n     */\n    function allowance(address owner, address spender) external override view returns (uint256) {\n        return _allowances[owner][spender];\n    }\n\n    /**\n     * @dev See {BEP20-approve}.\n     *\n     * Requirements:\n     *\n     * - `spender` cannot be the zero address.\n     */\n    function approve(address spender, uint256 amount) external override returns (bool) {\n        _approve(_msgSender(), spender, amount);\n        return true;\n    }\n\n    /**\n     * @dev See {BEP20-transferFrom}.\n     *\n     * Emits an {Approval} event indicating the updated allowance. This is not\n     * required by the EIP. See the note at the beginning of {BEP20};\n     *\n     * Requirements:\n     * - `sender` and `recipient` cannot be the zero address.\n     * - `sender` must have a balance of at least `amount`.\n     * - the caller must have allowance for `sender`'s tokens of at least\n     * `amount`.\n     */\n    function transferFrom(address sender, address recipient, uint256 amount) external override returns (bool) {\n        _transfer(sender, recipient, amount);\n        _approve(sender, _msgSender(), _allowances[sender][_msgSender()].sub(amount, \"BEP20: transfer amount exceeds allowance\"));\n        return true;\n    }\n\n    /**\n     * @dev Atomically increases the allowance granted to `spender` by the caller.\n     *\n     * This is an alternative to {approve} that can be used as a mitigation for\n     * problems described in {BEP20-approve}.\n     *\n     * Emits an {Approval} event indicating the updated allowance.\n     *\n     * Requirements:\n     *\n     * - `spender` cannot be the zero address.\n     */\n    function increaseAllowance(address spender, uint256 addedValue) public returns (bool) {\n        _approve(_msgSender(), spender, _allowances[_msgSender()][spender].add(addedValue));\n        return true;\n    }\n\n    /**\n     * @dev Atomically decreases the allowance granted to `spender` by the caller.\n     *\n     * This is an alternative to {approve} that can be used as a mitigation for\n     * problems described in {BEP20-approve}.\n     *\n     * Emits an {Approval} event indicating the updated allowance.\n     *\n     * Requirements:\n     *\n     * - `spender` cannot be the zero address.\n     * - `spender` must have allowance for the caller of at least\n     * `subtractedValue`.\n     */\n    function decreaseAllowance(address spender, uint256 subtractedValue) public returns (bool) {\n        _approve(_msgSender(), spender, _allowances[_msgSender()][spender].sub(subtractedValue, \"BEP20: decreased allowance below zero\"));\n        return true;\n    }\n\n    /**\n     * @dev Creates `amount` tokens and assigns them to `msg.sender`, increasing\n     * the total supply.\n     *\n     * Requirements\n     *\n     * - `msg.sender` must be the token owner\n     * - `_mintable` must be true\n     */\n    function mint(uint256 amount) public onlyOwner returns (bool) {\n        require(_mintable, \"this token is not mintable\");\n        _mint(_msgSender(), amount);\n        return true;\n    }\n\n    /**\n   * @dev Burn `amount` tokens and decreasing the total supply.\n   */\n    function burn(uint256 amount) public returns (bool) {\n        _burn(_msgSender(), amount);\n        return true;\n    }\n\n    /**\n     * @dev Moves tokens `amount` from `sender` to `recipient`.\n     *\n     * This is internal function is equivalent to {transfer}, and can be used to\n     * e.g. implement automatic token fees, slashing mechanisms, etc.\n     *\n     * Emits a {Transfer} event.\n     *\n     * Requirements:\n     *\n     * - `sender` cannot be the zero address.\n     * - `recipient` cannot be the zero address.\n     * - `sender` must have a balance of at least `amount`.\n     */\n    function _transfer(address sender, address recipient, uint256 amount) internal {\n        require(sender != address(0), \"BEP20: transfer from the zero address\");\n        require(recipient != address(0), \"BEP20: transfer to the zero address\");\n\n        _balances[sender] = _balances[sender].sub(amount, \"BEP20: transfer amount exceeds balance\");\n        _balances[recipient] = _balances[recipient].add(amount);\n        emit Transfer(sender, recipient, amount);\n    }\n\n    /** @dev Creates `amount` tokens and assigns them to `account`, increasing\n     * the total supply.\n     *\n     * Emits a {Transfer} event with `from` set to the zero address.\n     *\n     * Requirements\n     *\n     * - `to` cannot be the zero address.\n     */\n    function _mint(address account, uint256 amount) internal {\n        require(account != address(0), \"BEP20: mint to the zero address\");\n\n        _totalSupply = _totalSupply.add(amount);\n        _balances[account] = _balances[account].add(amount);\n        emit Transfer(address(0), account, amount);\n    }\n\n    /**\n     * @dev Destroys `amount` tokens from `account`, reducing the\n     * total supply.\n     *\n     * Emits a {Transfer} event with `to` set to the zero address.\n     *\n     * Requirements\n     *\n     * - `account` cannot be the zero address.\n     * - `account` must have at least `amount` tokens.\n     */\n    function _burn(address account, uint256 amount) internal {\n        require(account != address(0), \"BEP20: burn from the zero address\");\n\n        _balances[account] = _balances[account].sub(amount, \"BEP20: burn amount exceeds balance\");\n        _totalSupply = _totalSupply.sub(amount);\n        emit Transfer(account, address(0), amount);\n    }\n\n    /**\n     * @dev Sets `amount` as the allowance of `spender` over the `owner`s tokens.\n     *\n     * This is internal function is equivalent to `approve`, and can be used to\n     * e.g. set automatic allowances for certain subsystems, etc.\n     *\n     * Emits an {Approval} event.\n     *\n     * Requirements:\n     *\n     * - `owner` cannot be the zero address.\n     * - `spender` cannot be the zero address.\n     */\n    function _approve(address owner, address spender, uint256 amount) internal {\n        require(owner != address(0), \"BEP20: approve from the zero address\");\n        require(spender != address(0), \"BEP20: approve to the zero address\");\n\n        _allowances[owner][spender] = amount;\n        emit Approval(owner, spender, amount);\n    }\n\n    /**\n     * @dev Destroys `amount` tokens from `account`.`amount` is then deducted\n     * from the caller's allowance.\n     *\n     * See {_burn} and {_approve}.\n     */\n    function _burnFrom(address account, uint256 amount) internal {\n        _burn(account, amount);\n        _approve(account, _msgSender(), _allowances[account][_msgSender()].sub(amount, \"BEP20: burn amount exceeds allowance\"));\n    }\n\n}",
  "sourcePath": "/Users/nicolascloutier/Desktop/herpes/contracts/Herpes.sol",
  "compiler": {
    "name": "solc",
    "version": "0.8.2+commit.661d1103.Emscripten.clang"
  },
  "schemaVersion": "3.3.4",
  "updatedAt": "2021-06-06T06:33:44.268Z",
  "devdoc": {
    "kind": "dev",
    "methods": {
      "allowance(address,address)": {
        "details": "See {BEP20-allowance}."
      },
      "approve(address,uint256)": {
        "details": "See {BEP20-approve}. Requirements: - `spender` cannot be the zero address."
      },
      "balanceOf(address)": {
        "details": "See {BEP20-balanceOf}."
      },
      "burn(uint256)": {
        "details": "Burn `amount` tokens and decreasing the total supply."
      },
      "decimals()": {
        "details": "Returns the token decimals."
      },
      "decreaseAllowance(address,uint256)": {
        "details": "Atomically decreases the allowance granted to `spender` by the caller. This is an alternative to {approve} that can be used as a mitigation for problems described in {BEP20-approve}. Emits an {Approval} event indicating the updated allowance. Requirements: - `spender` cannot be the zero address. - `spender` must have allowance for the caller of at least `subtractedValue`."
      },
      "getOwner()": {
        "details": "Returns the bep token owner."
      },
      "increaseAllowance(address,uint256)": {
        "details": "Atomically increases the allowance granted to `spender` by the caller. This is an alternative to {approve} that can be used as a mitigation for problems described in {BEP20-approve}. Emits an {Approval} event indicating the updated allowance. Requirements: - `spender` cannot be the zero address."
      },
      "initialize(string,string,uint8,uint256,bool,address)": {
        "details": "sets initials supply and the owner"
      },
      "mint(uint256)": {
        "details": "Creates `amount` tokens and assigns them to `msg.sender`, increasing the total supply. Requirements - `msg.sender` must be the token owner - `_mintable` must be true"
      },
      "mintable()": {
        "details": "Returns if the token is mintable or not"
      },
      "name()": {
        "details": "Returns the token name."
      },
      "renounceOwnership()": {
        "details": "Leaves the contract without owner. It will not be possible to call `onlyOwner` functions anymore. Can only be called by the current owner. NOTE: Renouncing ownership will leave the contract without an owner, thereby removing any functionality that is only available to the owner."
      },
      "symbol()": {
        "details": "Returns the token symbol."
      },
      "totalSupply()": {
        "details": "See {BEP20-totalSupply}."
      },
      "transfer(address,uint256)": {
        "details": "See {BEP20-transfer}. Requirements: - `recipient` cannot be the zero address. - the caller must have a balance of at least `amount`."
      },
      "transferFrom(address,address,uint256)": {
        "details": "See {BEP20-transferFrom}. Emits an {Approval} event indicating the updated allowance. This is not required by the EIP. See the note at the beginning of {BEP20}; Requirements: - `sender` and `recipient` cannot be the zero address. - `sender` must have a balance of at least `amount`. - the caller must have allowance for `sender`'s tokens of at least `amount`."
      },
      "transferOwnership(address)": {
        "details": "Transfers ownership of the contract to a new account (`newOwner`). Can only be called by the current owner."
      }
    },
    "version": 1
  },
  "userdoc": {
    "kind": "user",
    "methods": {},
    "version": 1
  }
}